{
    "contractName": "AJungle",
    "abi": [
        {
            "inputs": [],
            "stateMutability": "nonpayable",
            "type": "constructor"
        },
        {
            "anonymous": false,
            "inputs": [
                {
                    "indexed": true,
                    "internalType": "address",
                    "name": "owner",
                    "type": "address"
                },
                {
                    "indexed": true,
                    "internalType": "address",
                    "name": "approved",
                    "type": "address"
                },
                {
                    "indexed": true,
                    "internalType": "uint256",
                    "name": "tokenId",
                    "type": "uint256"
                }
            ],
            "name": "Approval",
            "type": "event"
        },
        {
            "anonymous": false,
            "inputs": [
                {
                    "indexed": true,
                    "internalType": "address",
                    "name": "owner",
                    "type": "address"
                },
                {
                    "indexed": true,
                    "internalType": "address",
                    "name": "operator",
                    "type": "address"
                },
                {
                    "indexed": false,
                    "internalType": "bool",
                    "name": "approved",
                    "type": "bool"
                }
            ],
            "name": "ApprovalForAll",
            "type": "event"
        },
        {
            "anonymous": false,
            "inputs": [
                {
                    "indexed": false,
                    "internalType": "address",
                    "name": "",
                    "type": "address"
                },
                {
                    "indexed": false,
                    "internalType": "uint256",
                    "name": "",
                    "type": "uint256"
                }
            ],
            "name": "MintAllowed",
            "type": "event"
        },
        {
            "anonymous": false,
            "inputs": [
                {
                    "indexed": true,
                    "internalType": "address",
                    "name": "previousOwner",
                    "type": "address"
                },
                {
                    "indexed": true,
                    "internalType": "address",
                    "name": "newOwner",
                    "type": "address"
                }
            ],
            "name": "OwnershipTransferred",
            "type": "event"
        },
        {
            "anonymous": false,
            "inputs": [
                {
                    "indexed": false,
                    "internalType": "address",
                    "name": "account",
                    "type": "address"
                }
            ],
            "name": "Paused",
            "type": "event"
        },
        {
            "anonymous": false,
            "inputs": [
                {
                    "indexed": true,
                    "internalType": "address",
                    "name": "from",
                    "type": "address"
                },
                {
                    "indexed": true,
                    "internalType": "address",
                    "name": "to",
                    "type": "address"
                },
                {
                    "indexed": true,
                    "internalType": "uint256",
                    "name": "tokenId",
                    "type": "uint256"
                }
            ],
            "name": "Transfer",
            "type": "event"
        },
        {
            "anonymous": false,
            "inputs": [
                {
                    "indexed": false,
                    "internalType": "address",
                    "name": "account",
                    "type": "address"
                }
            ],
            "name": "Unpaused",
            "type": "event"
        },
        {
            "inputs": [
                {
                    "internalType": "address",
                    "name": "_lister",
                    "type": "address"
                },
                {
                    "internalType": "uint256",
                    "name": "_price",
                    "type": "uint256"
                }
            ],
            "name": "addRegWhiteList",
            "outputs": [],
            "stateMutability": "nonpayable",
            "type": "function"
        },
        {
            "inputs": [
                {
                    "internalType": "address",
                    "name": "to",
                    "type": "address"
                },
                {
                    "internalType": "uint256",
                    "name": "tokenId",
                    "type": "uint256"
                }
            ],
            "name": "approve",
            "outputs": [],
            "stateMutability": "nonpayable",
            "type": "function"
        },
        {
            "inputs": [
                {
                    "internalType": "address",
                    "name": "owner",
                    "type": "address"
                }
            ],
            "name": "balanceOf",
            "outputs": [
                {
                    "internalType": "uint256",
                    "name": "",
                    "type": "uint256"
                }
            ],
            "stateMutability": "view",
            "type": "function"
        },
        {
            "inputs": [
                {
                    "internalType": "bool",
                    "name": "update",
                    "type": "bool"
                }
            ],
            "name": "closePresale",
            "outputs": [],
            "stateMutability": "nonpayable",
            "type": "function"
        },
        {
            "inputs": [
                {
                    "internalType": "address",
                    "name": "",
                    "type": "address"
                },
                {
                    "internalType": "uint256",
                    "name": "",
                    "type": "uint256"
                }
            ],
            "name": "discountWhiteList",
            "outputs": [
                {
                    "internalType": "uint256",
                    "name": "",
                    "type": "uint256"
                }
            ],
            "stateMutability": "view",
            "type": "function"
        },
        {
            "inputs": [
                {
                    "internalType": "uint256",
                    "name": "tokenId",
                    "type": "uint256"
                }
            ],
            "name": "getApproved",
            "outputs": [
                {
                    "internalType": "address",
                    "name": "",
                    "type": "address"
                }
            ],
            "stateMutability": "view",
            "type": "function"
        },
        {
            "inputs": [
                {
                    "internalType": "address",
                    "name": "owner",
                    "type": "address"
                },
                {
                    "internalType": "address",
                    "name": "operator",
                    "type": "address"
                }
            ],
            "name": "isApprovedForAll",
            "outputs": [
                {
                    "internalType": "bool",
                    "name": "",
                    "type": "bool"
                }
            ],
            "stateMutability": "view",
            "type": "function"
        },
        {
            "inputs": [],
            "name": "isPreSaleRunning",
            "outputs": [
                {
                    "internalType": "bool",
                    "name": "",
                    "type": "bool"
                }
            ],
            "stateMutability": "view",
            "type": "function"
        },
        {
            "inputs": [],
            "name": "name",
            "outputs": [
                {
                    "internalType": "string",
                    "name": "",
                    "type": "string"
                }
            ],
            "stateMutability": "view",
            "type": "function"
        },
        {
            "inputs": [],
            "name": "owner",
            "outputs": [
                {
                    "internalType": "address",
                    "name": "",
                    "type": "address"
                }
            ],
            "stateMutability": "view",
            "type": "function"
        },
        {
            "inputs": [
                {
                    "internalType": "uint256",
                    "name": "tokenId",
                    "type": "uint256"
                }
            ],
            "name": "ownerOf",
            "outputs": [
                {
                    "internalType": "address",
                    "name": "",
                    "type": "address"
                }
            ],
            "stateMutability": "view",
            "type": "function"
        },
        {
            "inputs": [],
            "name": "pause",
            "outputs": [],
            "stateMutability": "nonpayable",
            "type": "function"
        },
        {
            "inputs": [],
            "name": "paused",
            "outputs": [
                {
                    "internalType": "bool",
                    "name": "",
                    "type": "bool"
                }
            ],
            "stateMutability": "view",
            "type": "function"
        },
        {
            "inputs": [],
            "name": "publicSalePrice",
            "outputs": [
                {
                    "internalType": "uint256",
                    "name": "",
                    "type": "uint256"
                }
            ],
            "stateMutability": "view",
            "type": "function"
        },
        {
            "inputs": [
                {
                    "internalType": "address",
                    "name": "",
                    "type": "address"
                }
            ],
            "name": "regularWhiteList",
            "outputs": [
                {
                    "internalType": "uint256",
                    "name": "",
                    "type": "uint256"
                }
            ],
            "stateMutability": "view",
            "type": "function"
        },
        {
            "inputs": [],
            "name": "renounceOwnership",
            "outputs": [],
            "stateMutability": "nonpayable",
            "type": "function"
        },
        {
            "inputs": [
                {
                    "internalType": "address",
                    "name": "to",
                    "type": "address"
                }
            ],
            "name": "safeMint",
            "outputs": [],
            "stateMutability": "payable",
            "type": "function"
        },
        {
            "inputs": [],
            "name": "safeMint",
            "outputs": [],
            "stateMutability": "payable",
            "type": "function"
        },
        {
            "inputs": [
                {
                    "internalType": "address",
                    "name": "from",
                    "type": "address"
                },
                {
                    "internalType": "address",
                    "name": "to",
                    "type": "address"
                },
                {
                    "internalType": "uint256",
                    "name": "tokenId",
                    "type": "uint256"
                }
            ],
            "name": "safeTransferFrom",
            "outputs": [],
            "stateMutability": "nonpayable",
            "type": "function"
        },
        {
            "inputs": [
                {
                    "internalType": "address",
                    "name": "from",
                    "type": "address"
                },
                {
                    "internalType": "address",
                    "name": "to",
                    "type": "address"
                },
                {
                    "internalType": "uint256",
                    "name": "tokenId",
                    "type": "uint256"
                },
                {
                    "internalType": "bytes",
                    "name": "_data",
                    "type": "bytes"
                }
            ],
            "name": "safeTransferFrom",
            "outputs": [],
            "stateMutability": "nonpayable",
            "type": "function"
        },
        {
            "inputs": [
                {
                    "internalType": "address",
                    "name": "operator",
                    "type": "address"
                },
                {
                    "internalType": "bool",
                    "name": "approved",
                    "type": "bool"
                }
            ],
            "name": "setApprovalForAll",
            "outputs": [],
            "stateMutability": "nonpayable",
            "type": "function"
        },
        {
            "inputs": [
                {
                    "internalType": "uint256",
                    "name": "_price",
                    "type": "uint256"
                }
            ],
            "name": "setPublicSalePrice",
            "outputs": [],
            "stateMutability": "nonpayable",
            "type": "function"
        },
        {
            "inputs": [
                {
                    "internalType": "bytes4",
                    "name": "interfaceId",
                    "type": "bytes4"
                }
            ],
            "name": "supportsInterface",
            "outputs": [
                {
                    "internalType": "bool",
                    "name": "",
                    "type": "bool"
                }
            ],
            "stateMutability": "view",
            "type": "function"
        },
        {
            "inputs": [],
            "name": "symbol",
            "outputs": [
                {
                    "internalType": "string",
                    "name": "",
                    "type": "string"
                }
            ],
            "stateMutability": "view",
            "type": "function"
        },
        {
            "inputs": [
                {
                    "internalType": "uint256",
                    "name": "tokenId",
                    "type": "uint256"
                }
            ],
            "name": "tokenURI",
            "outputs": [
                {
                    "internalType": "string",
                    "name": "",
                    "type": "string"
                }
            ],
            "stateMutability": "view",
            "type": "function"
        },
        {
            "inputs": [
                {
                    "internalType": "address",
                    "name": "from",
                    "type": "address"
                },
                {
                    "internalType": "address",
                    "name": "to",
                    "type": "address"
                },
                {
                    "internalType": "uint256",
                    "name": "tokenId",
                    "type": "uint256"
                }
            ],
            "name": "transferFrom",
            "outputs": [],
            "stateMutability": "nonpayable",
            "type": "function"
        },
        {
            "inputs": [
                {
                    "internalType": "address",
                    "name": "newOwner",
                    "type": "address"
                }
            ],
            "name": "transferOwnership",
            "outputs": [],
            "stateMutability": "nonpayable",
            "type": "function"
        },
        {
            "inputs": [],
            "name": "unpause",
            "outputs": [],
            "stateMutability": "nonpayable",
            "type": "function"
        },
        {
            "inputs": [
                {
                    "internalType": "address",
                    "name": "_user",
                    "type": "address"
                },
                {
                    "internalType": "uint256",
                    "name": "_at_price",
                    "type": "uint256"
                },
                {
                    "internalType": "uint256",
                    "name": "_allowed",
                    "type": "uint256"
                }
            ],
            "name": "whiteList",
            "outputs": [],
            "stateMutability": "nonpayable",
            "type": "function"
        },
        {
            "inputs": [
                {
                    "internalType": "address",
                    "name": "_user",
                    "type": "address"
                },
                {
                    "internalType": "uint256",
                    "name": "_price",
                    "type": "uint256"
                }
            ],
            "name": "whiteListOf",
            "outputs": [
                {
                    "internalType": "uint256",
                    "name": "",
                    "type": "uint256"
                }
            ],
            "stateMutability": "view",
            "type": "function"
        }
    ],
    "bytecode": "60806040523480156200001157600080fd5b506040805180820182526007815266414a756e676c6560c81b6020808301918252835180850190945260058452644a4e474c4560d81b9084015281519192916200005e91600091620000ec565b50805162000074906001906020840190620000ec565b50506006805460ff19169055506200008c3362000092565b620001cf565b600680546001600160a01b03838116610100818102610100600160a81b031985161790945560405193909204169182907f8be0079c531659141344cd1fd0a4f28419497f9722a3daafe3b4186f6b6457e090600090a35050565b828054620000fa9062000192565b90600052602060002090601f0160209004810192826200011e576000855562000169565b82601f106200013957805160ff191683800117855562000169565b8280016001018555821562000169579182015b82811115620001695782518255916020019190600101906200014c565b50620001779291506200017b565b5090565b5b808211156200017757600081556001016200017c565b600181811c90821680620001a757607f821691505b60208210811415620001c957634e487b7160e01b600052602260045260246000fd5b50919050565b611dfb80620001df6000396000f3fe6080604052600436106101cd5760003560e01c80638456cb59116100f7578063a9996a2511610095578063de94189611610064578063de94189614610533578063e985e9c514610553578063ef89dfe01461059c578063f2fde38b146105bc57600080fd5b8063a9996a25146104a1578063b88d4fde146104d9578063c87b56dd146104f9578063d5e4a36e1461051957600080fd5b806395d89b41116100d157806395d89b41146104365780639b6860c81461044b578063a22cb46514610461578063a6d048a61461048157600080fd5b80638456cb59146103bb57806387f8b44b146103d05780638da5cb5b1461041357600080fd5b806342842e0e1161016f57806370a082311161013e57806370a082311461032b578063715018a614610359578063791a25191461036e5780637be21fca1461038e57600080fd5b806342842e0e146102cb5780635c975abb146102eb5780636352211e146103035780636871ee401461032357600080fd5b8063095ea7b3116101ab578063095ea7b31461026157806323b872dd146102835780633f4ba83a146102a357806340d097c3146102b857600080fd5b806301ffc9a7146101d257806306fdde0314610207578063081812fc14610229575b600080fd5b3480156101de57600080fd5b506101f26101ed366004611839565b6105dc565b60405190151581526020015b60405180910390f35b34801561021357600080fd5b5061021c61062e565b6040516101fe91906118ae565b34801561023557600080fd5b506102496102443660046118c1565b6106c0565b6040516001600160a01b0390911681526020016101fe565b34801561026d57600080fd5b5061028161027c3660046118f6565b61075a565b005b34801561028f57600080fd5b5061028161029e366004611920565b610870565b3480156102af57600080fd5b506102816108a1565b6102816102c636600461195c565b6108db565b3480156102d757600080fd5b506102816102e6366004611920565b61093c565b3480156102f757600080fd5b5060065460ff166101f2565b34801561030f57600080fd5b5061024961031e3660046118c1565b610957565b6102816109ce565b34801561033757600080fd5b5061034b61034636600461195c565b610ac7565b6040519081526020016101fe565b34801561036557600080fd5b50610281610b4e565b34801561037a57600080fd5b506102816103893660046118c1565b610b88565b34801561039a57600080fd5b5061034b6103a936600461195c565b600a6020526000908152604090205481565b3480156103c757600080fd5b50610281610bbd565b3480156103dc57600080fd5b5061034b6103eb3660046118f6565b6001600160a01b03919091166000908152600960209081526040808320938352929052205490565b34801561041f57600080fd5b5060065461010090046001600160a01b0316610249565b34801561044257600080fd5b5061021c610bf5565b34801561045757600080fd5b5061034b60075481565b34801561046d57600080fd5b5061028161047c366004611987565b610c04565b34801561048d57600080fd5b5061028161049c3660046119ba565b610c13565b3480156104ad57600080fd5b5061034b6104bc3660046118f6565b600960209081526000928352604080842090915290825290205481565b3480156104e557600080fd5b506102816104f43660046119eb565b610c56565b34801561050557600080fd5b5061021c6105143660046118c1565b610c8e565b34801561052557600080fd5b50600b546101f29060ff1681565b34801561053f57600080fd5b5061028161054e366004611ac7565b610d69565b34801561055f57600080fd5b506101f261056e366004611afa565b6001600160a01b03918216600090815260056020908152604080832093909416825291909152205460ff1690565b3480156105a857600080fd5b506102816105b73660046118f6565b610dbf565b3480156105c857600080fd5b506102816105d736600461195c565b610e0b565b60006001600160e01b031982166380ac58cd60e01b148061060d57506001600160e01b03198216635b5e139f60e01b145b8061062857506301ffc9a760e01b6001600160e01b03198316145b92915050565b60606000805461063d90611b24565b80601f016020809104026020016040519081016040528092919081815260200182805461066990611b24565b80156106b65780601f1061068b576101008083540402835291602001916106b6565b820191906000526020600020905b81548152906001019060200180831161069957829003601f168201915b5050505050905090565b6000818152600260205260408120546001600160a01b031661073e5760405162461bcd60e51b815260206004820152602c60248201527f4552433732313a20617070726f76656420717565727920666f72206e6f6e657860448201526b34b9ba32b73a103a37b5b2b760a11b60648201526084015b60405180910390fd5b506000908152600460205260409020546001600160a01b031690565b600061076582610957565b9050806001600160a01b0316836001600160a01b031614156107d35760405162461bcd60e51b815260206004820152602160248201527f4552433732313a20617070726f76616c20746f2063757272656e74206f776e656044820152603960f91b6064820152608401610735565b336001600160a01b03821614806107ef57506107ef813361056e565b6108615760405162461bcd60e51b815260206004820152603860248201527f4552433732313a20617070726f76652063616c6c6572206973206e6f74206f7760448201527f6e6572206e6f7220617070726f76656420666f7220616c6c00000000000000006064820152608401610735565b61086b8383610eac565b505050565b61087a3382610f1a565b6108965760405162461bcd60e51b815260040161073590611b5f565b61086b838383611011565b6006546001600160a01b036101009091041633146108d15760405162461bcd60e51b815260040161073590611bb0565b6108d96111bc565b565b60006108e660085490565b90506108f6600880546001019055565b610900828261124f565b604080513381523460208201527fe67ba7e1063f76b874efcaca166aa2320e8e5ede41345415442dc785723f837b910160405180910390a15050565b61086b83838360405180602001604052806000815250610c56565b6000818152600260205260408120546001600160a01b0316806106285760405162461bcd60e51b815260206004820152602960248201527f4552433732313a206f776e657220717565727920666f72206e6f6e657869737460448201526832b73a103a37b5b2b760b91b6064820152608401610735565b600b5460ff16610a335760405162461bcd60e51b815260206004820152602a60248201527f70726573616c6520697320636c6f7365642c20627579207573696e672064656660448201526961756c7420707269636560b01b6064820152608401610735565b336000908152600960209081526040808320348452909152902054610a9a5760405162461bcd60e51b815260206004820152601d60248201527f796f7520646f6e742068617665207072656d69756d2070726963696e670000006044820152606401610735565b610aa3336108db565b33600090815260096020908152604080832034845290915290208054600019019055565b60006001600160a01b038216610b325760405162461bcd60e51b815260206004820152602a60248201527f4552433732313a2062616c616e636520717565727920666f7220746865207a65604482015269726f206164647265737360b01b6064820152608401610735565b506001600160a01b031660009081526003602052604090205490565b6006546001600160a01b03610100909104163314610b7e5760405162461bcd60e51b815260040161073590611bb0565b6108d96000611269565b6006546001600160a01b03610100909104163314610bb85760405162461bcd60e51b815260040161073590611bb0565b600755565b6006546001600160a01b03610100909104163314610bed5760405162461bcd60e51b815260040161073590611bb0565b6108d96112c3565b60606001805461063d90611b24565b610c0f33838361133e565b5050565b6006546001600160a01b03610100909104163314610c435760405162461bcd60e51b815260040161073590611bb0565b600b805460ff1916911515919091179055565b610c603383610f1a565b610c7c5760405162461bcd60e51b815260040161073590611b5f565b610c888484848461140d565b50505050565b6000818152600260205260409020546060906001600160a01b0316610d0d5760405162461bcd60e51b815260206004820152602f60248201527f4552433732314d657461646174613a2055524920717565727920666f72206e6f60448201526e3732bc34b9ba32b73a103a37b5b2b760891b6064820152608401610735565b6000610d17611440565b90506000815111610d375760405180602001604052806000815250610d62565b80610d4184611460565b604051602001610d52929190611be5565b6040516020818303038152906040525b9392505050565b6006546001600160a01b03610100909104163314610d995760405162461bcd60e51b815260040161073590611bb0565b6001600160a01b0390921660009081526009602090815260408083209383529290522055565b6006546001600160a01b03610100909104163314610def5760405162461bcd60e51b815260040161073590611bb0565b6001600160a01b039091166000908152600a6020526040902055565b6006546001600160a01b03610100909104163314610e3b5760405162461bcd60e51b815260040161073590611bb0565b6001600160a01b038116610ea05760405162461bcd60e51b815260206004820152602660248201527f4f776e61626c653a206e6577206f776e657220697320746865207a65726f206160448201526564647265737360d01b6064820152608401610735565b610ea981611269565b50565b600081815260046020526040902080546001600160a01b0319166001600160a01b0384169081179091558190610ee182610957565b6001600160a01b03167f8c5be1e5ebec7d5bd14f71427d1e84f3dd0314c0f7b2291e5b200ac8c7c3b92560405160405180910390a45050565b6000818152600260205260408120546001600160a01b0316610f935760405162461bcd60e51b815260206004820152602c60248201527f4552433732313a206f70657261746f7220717565727920666f72206e6f6e657860448201526b34b9ba32b73a103a37b5b2b760a11b6064820152608401610735565b6000610f9e83610957565b9050806001600160a01b0316846001600160a01b03161480610fd95750836001600160a01b0316610fce846106c0565b6001600160a01b0316145b8061100957506001600160a01b0380821660009081526005602090815260408083209388168352929052205460ff165b949350505050565b826001600160a01b031661102482610957565b6001600160a01b03161461108c5760405162461bcd60e51b815260206004820152602960248201527f4552433732313a207472616e73666572206f6620746f6b656e2074686174206960448201526839903737ba1037bbb760b91b6064820152608401610735565b6001600160a01b0382166110ee5760405162461bcd60e51b8152602060048201526024808201527f4552433732313a207472616e7366657220746f20746865207a65726f206164646044820152637265737360e01b6064820152608401610735565b6110f983838361155e565b611104600082610eac565b6001600160a01b038316600090815260036020526040812080546001929061112d908490611c2a565b90915550506001600160a01b038216600090815260036020526040812080546001929061115b908490611c41565b909155505060008181526002602052604080822080546001600160a01b0319166001600160a01b0386811691821790925591518493918716917fddf252ad1be2c89b69c2b068fc378daa952ba7f163c4a11628f55a4df523b3ef91a4505050565b60065460ff166112055760405162461bcd60e51b815260206004820152601460248201527314185d5cd8589b194e881b9bdd081c185d5cd95960621b6044820152606401610735565b6006805460ff191690557f5db9ee0a495bf2e6ff9c91a7834c1ba4fdd244a5e8aa4e537bd38aeae4b073aa335b6040516001600160a01b03909116815260200160405180910390a1565b610c0f8282604051806020016040528060008152506115a4565b600680546001600160a01b03838116610100818102610100600160a81b031985161790945560405193909204169182907f8be0079c531659141344cd1fd0a4f28419497f9722a3daafe3b4186f6b6457e090600090a35050565b60065460ff16156113095760405162461bcd60e51b815260206004820152601060248201526f14185d5cd8589b194e881c185d5cd95960821b6044820152606401610735565b6006805460ff191660011790557f62e78cea01bee320cd4e420270b5ea74000d11b0c9f74754ebdbfc544b05a2586112323390565b816001600160a01b0316836001600160a01b031614156113a05760405162461bcd60e51b815260206004820152601960248201527f4552433732313a20617070726f766520746f2063616c6c6572000000000000006044820152606401610735565b6001600160a01b03838116600081815260056020908152604080832094871680845294825291829020805460ff191686151590811790915591519182527f17307eab39ab6107e8899845ad3d59bd9653f200f220920489ca2b5937696c31910160405180910390a3505050565b611418848484611011565b611424848484846115d7565b610c885760405162461bcd60e51b815260040161073590611c59565b6060604051806080016040528060518152602001611d7560519139905090565b6060816114845750506040805180820190915260018152600360fc1b602082015290565b8160005b81156114ae578061149881611cab565b91506114a79050600a83611cdc565b9150611488565b60008167ffffffffffffffff8111156114c9576114c96119d5565b6040519080825280601f01601f1916602001820160405280156114f3576020820181803683370190505b5090505b841561100957611508600183611c2a565b9150611515600a86611cf0565b611520906030611c41565b60f81b81838151811061153557611535611d04565b60200101906001600160f81b031916908160001a905350611557600a86611cdc565b94506114f7565b60065460ff161561086b5760405162461bcd60e51b815260206004820152601060248201526f14185d5cd8589b194e881c185d5cd95960821b6044820152606401610735565b6115ae83836116d5565b6115bb60008484846115d7565b61086b5760405162461bcd60e51b815260040161073590611c59565b60006001600160a01b0384163b156116ca57604051630a85bd0160e11b81526001600160a01b0385169063150b7a029061161b903390899088908890600401611d1a565b6020604051808303816000875af1925050508015611656575060408051601f3d908101601f1916820190925261165391810190611d57565b60015b6116b0573d808015611684576040519150601f19603f3d011682016040523d82523d6000602084013e611689565b606091505b5080516116a85760405162461bcd60e51b815260040161073590611c59565b805181602001fd5b6001600160e01b031916630a85bd0160e11b149050611009565b506001949350505050565b6001600160a01b03821661172b5760405162461bcd60e51b815260206004820181905260248201527f4552433732313a206d696e7420746f20746865207a65726f20616464726573736044820152606401610735565b6000818152600260205260409020546001600160a01b0316156117905760405162461bcd60e51b815260206004820152601c60248201527f4552433732313a20746f6b656e20616c7265616479206d696e746564000000006044820152606401610735565b61179c6000838361155e565b6001600160a01b03821660009081526003602052604081208054600192906117c5908490611c41565b909155505060008181526002602052604080822080546001600160a01b0319166001600160a01b03861690811790915590518392907fddf252ad1be2c89b69c2b068fc378daa952ba7f163c4a11628f55a4df523b3ef908290a45050565b6001600160e01b031981168114610ea957600080fd5b60006020828403121561184b57600080fd5b8135610d6281611823565b60005b83811015611871578181015183820152602001611859565b83811115610c885750506000910152565b6000815180845261189a816020860160208601611856565b601f01601f19169290920160200192915050565b602081526000610d626020830184611882565b6000602082840312156118d357600080fd5b5035919050565b80356001600160a01b03811681146118f157600080fd5b919050565b6000806040838503121561190957600080fd5b611912836118da565b946020939093013593505050565b60008060006060848603121561193557600080fd5b61193e846118da565b925061194c602085016118da565b9150604084013590509250925092565b60006020828403121561196e57600080fd5b610d62826118da565b803580151581146118f157600080fd5b6000806040838503121561199a57600080fd5b6119a3836118da565b91506119b160208401611977565b90509250929050565b6000602082840312156119cc57600080fd5b610d6282611977565b634e487b7160e01b600052604160045260246000fd5b60008060008060808587031215611a0157600080fd5b611a0a856118da565b9350611a18602086016118da565b925060408501359150606085013567ffffffffffffffff80821115611a3c57600080fd5b818701915087601f830112611a5057600080fd5b813581811115611a6257611a626119d5565b604051601f8201601f19908116603f01168101908382118183101715611a8a57611a8a6119d5565b816040528281528a6020848701011115611aa357600080fd5b82602086016020830137600060208483010152809550505050505092959194509250565b600080600060608486031215611adc57600080fd5b611ae5846118da565b95602085013595506040909401359392505050565b60008060408385031215611b0d57600080fd5b611b16836118da565b91506119b1602084016118da565b600181811c90821680611b3857607f821691505b60208210811415611b5957634e487b7160e01b600052602260045260246000fd5b50919050565b60208082526031908201527f4552433732313a207472616e736665722063616c6c6572206973206e6f74206f6040820152701ddb995c881b9bdc88185c1c1c9bdd9959607a1b606082015260800190565b6020808252818101527f4f776e61626c653a2063616c6c6572206973206e6f7420746865206f776e6572604082015260600190565b60008351611bf7818460208801611856565b835190830190611c0b818360208801611856565b01949350505050565b634e487b7160e01b600052601160045260246000fd5b600082821015611c3c57611c3c611c14565b500390565b60008219821115611c5457611c54611c14565b500190565b60208082526032908201527f4552433732313a207472616e7366657220746f206e6f6e20455243373231526560408201527131b2b4bb32b91034b6b83632b6b2b73a32b960711b606082015260800190565b6000600019821415611cbf57611cbf611c14565b5060010190565b634e487b7160e01b600052601260045260246000fd5b600082611ceb57611ceb611cc6565b500490565b600082611cff57611cff611cc6565b500690565b634e487b7160e01b600052603260045260246000fd5b6001600160a01b0385811682528416602082015260408101839052608060608201819052600090611d4d90830184611882565b9695505050505050565b600060208284031215611d6957600080fd5b8151610d628161182356fe68747470733a2f2f697066732e696f2f697066732f6261667962656966326b626236363470766774756536656a666679333567776d736a7562683235616b366637777a666a356e3662716c363574716d2fa26469706673582212206fb96118088a8fee6641d347ea273a72ec24e163fa4df50d7f31b51df51dffdd64736f6c634300080c0033",
    "sourcePath": "/media/yash/fc51dc5b-56d1-4d01-8310-d7b0048238d51/block8/JessicaMae/nft_polygon/contracts/AJungle.sol",
    "compiler": {
        "name": "solc",
        "version": "0.8.12+commit.f00d7308"
    },
    "functionHashes": {
        "addRegWhiteList(address,uint256)": "ef89dfe0",
        "approve(address,uint256)": "095ea7b3",
        "balanceOf(address)": "70a08231",
        "closePresale(bool)": "a6d048a6",
        "discountWhiteList(address,uint256)": "a9996a25",
        "getApproved(uint256)": "081812fc",
        "isApprovedForAll(address,address)": "e985e9c5",
        "isPreSaleRunning()": "d5e4a36e",
        "name()": "06fdde03",
        "owner()": "8da5cb5b",
        "ownerOf(uint256)": "6352211e",
        "pause()": "8456cb59",
        "paused()": "5c975abb",
        "publicSalePrice()": "9b6860c8",
        "regularWhiteList(address)": "7be21fca",
        "renounceOwnership()": "715018a6",
        "safeMint()": "6871ee40",
        "safeMint(address)": "40d097c3",
        "safeTransferFrom(address,address,uint256)": "42842e0e",
        "safeTransferFrom(address,address,uint256,bytes)": "b88d4fde",
        "setApprovalForAll(address,bool)": "a22cb465",
        "setPublicSalePrice(uint256)": "791a2519",
        "supportsInterface(bytes4)": "01ffc9a7",
        "symbol()": "95d89b41",
        "tokenURI(uint256)": "c87b56dd",
        "transferFrom(address,address,uint256)": "23b872dd",
        "transferOwnership(address)": "f2fde38b",
        "unpause()": "3f4ba83a",
        "whiteList(address,uint256,uint256)": "de941896",
        "whiteListOf(address,uint256)": "87f8b44b"
    },
    "gasEstimates": {
        "creation": {
            "codeDepositCost": "1535000",
            "executionCost": "infinite",
            "totalCost": "infinite"
        },
        "external": {
            "addRegWhiteList(address,uint256)": "24758",
            "approve(address,uint256)": "infinite",
            "balanceOf(address)": "2634",
            "closePresale(bool)": "26794",
            "discountWhiteList(address,uint256)": "2657",
            "getApproved(uint256)": "4783",
            "isApprovedForAll(address,address)": "infinite",
            "isPreSaleRunning()": "2410",
            "name()": "infinite",
            "owner()": "2432",
            "ownerOf(uint256)": "2646",
            "pause()": "29810",
            "paused()": "2361",
            "publicSalePrice()": "2362",
            "regularWhiteList(address)": "2630",
            "renounceOwnership()": "28217",
            "safeMint()": "infinite",
            "safeMint(address)": "infinite",
            "safeTransferFrom(address,address,uint256)": "infinite",
            "safeTransferFrom(address,address,uint256,bytes)": "infinite",
            "setApprovalForAll(address,bool)": "infinite",
            "setPublicSalePrice(uint256)": "24567",
            "supportsInterface(bytes4)": "557",
            "symbol()": "infinite",
            "tokenURI(uint256)": "infinite",
            "transferFrom(address,address,uint256)": "infinite",
            "transferOwnership(address)": "28455",
            "unpause()": "29831",
            "whiteList(address,uint256,uint256)": "24803",
            "whiteListOf(address,uint256)": "2704"
        },
        "internal": {
            "_baseURI()": "infinite",
            "_beforeTokenTransfer(address,address,uint256)": "infinite"
        }
    }
}