{
    "contractName": "AJungleV3",
    "abi": [
        {
            "inputs": [
                {
                    "internalType": "address",
                    "name": "_VRFCoordinator",
                    "type": "address"
                },
                {
                    "internalType": "address",
                    "name": "_LinkToken",
                    "type": "address"
                },
                {
                    "internalType": "bytes32",
                    "name": "_keyhash",
                    "type": "bytes32"
                },
                {
                    "internalType": "uint16",
                    "name": "_maxTokens",
                    "type": "uint16"
                }
            ],
            "stateMutability": "nonpayable",
            "type": "constructor"
        },
        {
            "anonymous": false,
            "inputs": [
                {
                    "indexed": true,
                    "internalType": "address",
                    "name": "owner",
                    "type": "address"
                },
                {
                    "indexed": true,
                    "internalType": "address",
                    "name": "approved",
                    "type": "address"
                },
                {
                    "indexed": true,
                    "internalType": "uint256",
                    "name": "tokenId",
                    "type": "uint256"
                }
            ],
            "name": "Approval",
            "type": "event"
        },
        {
            "anonymous": false,
            "inputs": [
                {
                    "indexed": true,
                    "internalType": "address",
                    "name": "owner",
                    "type": "address"
                },
                {
                    "indexed": true,
                    "internalType": "address",
                    "name": "operator",
                    "type": "address"
                },
                {
                    "indexed": false,
                    "internalType": "bool",
                    "name": "approved",
                    "type": "bool"
                }
            ],
            "name": "ApprovalForAll",
            "type": "event"
        },
        {
            "anonymous": false,
            "inputs": [
                {
                    "indexed": true,
                    "internalType": "address",
                    "name": "previousOwner",
                    "type": "address"
                },
                {
                    "indexed": true,
                    "internalType": "address",
                    "name": "newOwner",
                    "type": "address"
                }
            ],
            "name": "OwnershipTransferred",
            "type": "event"
        },
        {
            "anonymous": false,
            "inputs": [
                {
                    "indexed": false,
                    "internalType": "address",
                    "name": "account",
                    "type": "address"
                }
            ],
            "name": "Paused",
            "type": "event"
        },
        {
            "anonymous": false,
            "inputs": [
                {
                    "indexed": true,
                    "internalType": "address",
                    "name": "from",
                    "type": "address"
                },
                {
                    "indexed": true,
                    "internalType": "address",
                    "name": "to",
                    "type": "address"
                },
                {
                    "indexed": true,
                    "internalType": "uint256",
                    "name": "tokenId",
                    "type": "uint256"
                }
            ],
            "name": "Transfer",
            "type": "event"
        },
        {
            "anonymous": false,
            "inputs": [
                {
                    "indexed": false,
                    "internalType": "address",
                    "name": "account",
                    "type": "address"
                }
            ],
            "name": "Unpaused",
            "type": "event"
        },
        {
            "inputs": [
                {
                    "internalType": "address",
                    "name": "_address",
                    "type": "address"
                },
                {
                    "internalType": "uint8",
                    "name": "_count",
                    "type": "uint8"
                }
            ],
            "name": "addCharitySale",
            "outputs": [],
            "stateMutability": "nonpayable",
            "type": "function"
        },
        {
            "inputs": [
                {
                    "internalType": "address",
                    "name": "_address",
                    "type": "address"
                },
                {
                    "internalType": "uint8",
                    "name": "_count",
                    "type": "uint8"
                }
            ],
            "name": "addWFreeSale",
            "outputs": [],
            "stateMutability": "nonpayable",
            "type": "function"
        },
        {
            "inputs": [
                {
                    "internalType": "address",
                    "name": "_address",
                    "type": "address"
                },
                {
                    "internalType": "uint8",
                    "name": "_count",
                    "type": "uint8"
                }
            ],
            "name": "addWSale",
            "outputs": [],
            "stateMutability": "nonpayable",
            "type": "function"
        },
        {
            "inputs": [
                {
                    "internalType": "address",
                    "name": "to",
                    "type": "address"
                },
                {
                    "internalType": "uint256",
                    "name": "tokenId",
                    "type": "uint256"
                }
            ],
            "name": "approve",
            "outputs": [],
            "stateMutability": "nonpayable",
            "type": "function"
        },
        {
            "inputs": [
                {
                    "internalType": "address",
                    "name": "owner",
                    "type": "address"
                }
            ],
            "name": "balanceOf",
            "outputs": [
                {
                    "internalType": "uint256",
                    "name": "",
                    "type": "uint256"
                }
            ],
            "stateMutability": "view",
            "type": "function"
        },
        {
            "inputs": [],
            "name": "charityMintPrice",
            "outputs": [
                {
                    "internalType": "uint256",
                    "name": "",
                    "type": "uint256"
                }
            ],
            "stateMutability": "view",
            "type": "function"
        },
        {
            "inputs": [],
            "name": "currentPhase",
            "outputs": [
                {
                    "internalType": "enum AJungleV3.Phase",
                    "name": "",
                    "type": "uint8"
                }
            ],
            "stateMutability": "view",
            "type": "function"
        },
        {
            "inputs": [
                {
                    "internalType": "uint256",
                    "name": "tokenId",
                    "type": "uint256"
                }
            ],
            "name": "getApproved",
            "outputs": [
                {
                    "internalType": "address",
                    "name": "",
                    "type": "address"
                }
            ],
            "stateMutability": "view",
            "type": "function"
        },
        {
            "inputs": [
                {
                    "internalType": "address",
                    "name": "owner",
                    "type": "address"
                },
                {
                    "internalType": "address",
                    "name": "operator",
                    "type": "address"
                }
            ],
            "name": "isApprovedForAll",
            "outputs": [
                {
                    "internalType": "bool",
                    "name": "",
                    "type": "bool"
                }
            ],
            "stateMutability": "view",
            "type": "function"
        },
        {
            "inputs": [],
            "name": "maxTokens",
            "outputs": [
                {
                    "internalType": "uint16",
                    "name": "",
                    "type": "uint16"
                }
            ],
            "stateMutability": "view",
            "type": "function"
        },
        {
            "inputs": [],
            "name": "name",
            "outputs": [
                {
                    "internalType": "string",
                    "name": "",
                    "type": "string"
                }
            ],
            "stateMutability": "view",
            "type": "function"
        },
        {
            "inputs": [],
            "name": "owner",
            "outputs": [
                {
                    "internalType": "address",
                    "name": "",
                    "type": "address"
                }
            ],
            "stateMutability": "view",
            "type": "function"
        },
        {
            "inputs": [
                {
                    "internalType": "uint256",
                    "name": "tokenId",
                    "type": "uint256"
                }
            ],
            "name": "ownerOf",
            "outputs": [
                {
                    "internalType": "address",
                    "name": "",
                    "type": "address"
                }
            ],
            "stateMutability": "view",
            "type": "function"
        },
        {
            "inputs": [],
            "name": "pause",
            "outputs": [],
            "stateMutability": "nonpayable",
            "type": "function"
        },
        {
            "inputs": [],
            "name": "paused",
            "outputs": [
                {
                    "internalType": "bool",
                    "name": "",
                    "type": "bool"
                }
            ],
            "stateMutability": "view",
            "type": "function"
        },
        {
            "inputs": [
                {
                    "internalType": "uint16",
                    "name": "_from",
                    "type": "uint16"
                },
                {
                    "internalType": "uint256",
                    "name": "_to",
                    "type": "uint256"
                }
            ],
            "name": "populateTokenIds",
            "outputs": [],
            "stateMutability": "nonpayable",
            "type": "function"
        },
        {
            "inputs": [],
            "name": "preSalePrice",
            "outputs": [
                {
                    "internalType": "uint256",
                    "name": "",
                    "type": "uint256"
                }
            ],
            "stateMutability": "view",
            "type": "function"
        },
        {
            "inputs": [],
            "name": "pubSalePrice",
            "outputs": [
                {
                    "internalType": "uint256",
                    "name": "",
                    "type": "uint256"
                }
            ],
            "stateMutability": "view",
            "type": "function"
        },
        {
            "inputs": [
                {
                    "internalType": "bytes32",
                    "name": "requestId",
                    "type": "bytes32"
                },
                {
                    "internalType": "uint256",
                    "name": "randomness",
                    "type": "uint256"
                }
            ],
            "name": "rawFulfillRandomness",
            "outputs": [],
            "stateMutability": "nonpayable",
            "type": "function"
        },
        {
            "inputs": [],
            "name": "renounceOwnership",
            "outputs": [],
            "stateMutability": "nonpayable",
            "type": "function"
        },
        {
            "inputs": [
                {
                    "internalType": "bytes32",
                    "name": "",
                    "type": "bytes32"
                }
            ],
            "name": "requestIdToSender",
            "outputs": [
                {
                    "internalType": "address",
                    "name": "",
                    "type": "address"
                }
            ],
            "stateMutability": "view",
            "type": "function"
        },
        {
            "inputs": [],
            "name": "safeMint",
            "outputs": [],
            "stateMutability": "payable",
            "type": "function"
        },
        {
            "inputs": [
                {
                    "internalType": "address",
                    "name": "_to",
                    "type": "address"
                }
            ],
            "name": "safeMintAddress",
            "outputs": [],
            "stateMutability": "nonpayable",
            "type": "function"
        },
        {
            "inputs": [
                {
                    "internalType": "address",
                    "name": "from",
                    "type": "address"
                },
                {
                    "internalType": "address",
                    "name": "to",
                    "type": "address"
                },
                {
                    "internalType": "uint256",
                    "name": "tokenId",
                    "type": "uint256"
                }
            ],
            "name": "safeTransferFrom",
            "outputs": [],
            "stateMutability": "nonpayable",
            "type": "function"
        },
        {
            "inputs": [
                {
                    "internalType": "address",
                    "name": "from",
                    "type": "address"
                },
                {
                    "internalType": "address",
                    "name": "to",
                    "type": "address"
                },
                {
                    "internalType": "uint256",
                    "name": "tokenId",
                    "type": "uint256"
                },
                {
                    "internalType": "bytes",
                    "name": "_data",
                    "type": "bytes"
                }
            ],
            "name": "safeTransferFrom",
            "outputs": [],
            "stateMutability": "nonpayable",
            "type": "function"
        },
        {
            "inputs": [
                {
                    "internalType": "address",
                    "name": "operator",
                    "type": "address"
                },
                {
                    "internalType": "bool",
                    "name": "approved",
                    "type": "bool"
                }
            ],
            "name": "setApprovalForAll",
            "outputs": [],
            "stateMutability": "nonpayable",
            "type": "function"
        },
        {
            "inputs": [
                {
                    "internalType": "uint256",
                    "name": "_price",
                    "type": "uint256"
                }
            ],
            "name": "setCharityMintPrice",
            "outputs": [],
            "stateMutability": "nonpayable",
            "type": "function"
        },
        {
            "inputs": [
                {
                    "internalType": "enum AJungleV3.Phase",
                    "name": "_phase",
                    "type": "uint8"
                }
            ],
            "name": "setPhase",
            "outputs": [],
            "stateMutability": "nonpayable",
            "type": "function"
        },
        {
            "inputs": [
                {
                    "internalType": "uint256",
                    "name": "_price",
                    "type": "uint256"
                }
            ],
            "name": "setPreSalePrice",
            "outputs": [],
            "stateMutability": "nonpayable",
            "type": "function"
        },
        {
            "inputs": [
                {
                    "internalType": "uint256",
                    "name": "_price",
                    "type": "uint256"
                }
            ],
            "name": "setPubSalePrice",
            "outputs": [],
            "stateMutability": "nonpayable",
            "type": "function"
        },
        {
            "inputs": [
                {
                    "internalType": "uint256",
                    "name": "_price",
                    "type": "uint256"
                }
            ],
            "name": "setWSalePrice",
            "outputs": [],
            "stateMutability": "nonpayable",
            "type": "function"
        },
        {
            "inputs": [
                {
                    "internalType": "bytes4",
                    "name": "interfaceId",
                    "type": "bytes4"
                }
            ],
            "name": "supportsInterface",
            "outputs": [
                {
                    "internalType": "bool",
                    "name": "",
                    "type": "bool"
                }
            ],
            "stateMutability": "view",
            "type": "function"
        },
        {
            "inputs": [],
            "name": "symbol",
            "outputs": [
                {
                    "internalType": "string",
                    "name": "",
                    "type": "string"
                }
            ],
            "stateMutability": "view",
            "type": "function"
        },
        {
            "inputs": [
                {
                    "internalType": "uint256",
                    "name": "",
                    "type": "uint256"
                }
            ],
            "name": "tokenIds",
            "outputs": [
                {
                    "internalType": "uint16",
                    "name": "",
                    "type": "uint16"
                }
            ],
            "stateMutability": "view",
            "type": "function"
        },
        {
            "inputs": [
                {
                    "internalType": "uint256",
                    "name": "tokenId",
                    "type": "uint256"
                }
            ],
            "name": "tokenURI",
            "outputs": [
                {
                    "internalType": "string",
                    "name": "",
                    "type": "string"
                }
            ],
            "stateMutability": "view",
            "type": "function"
        },
        {
            "inputs": [
                {
                    "internalType": "address",
                    "name": "from",
                    "type": "address"
                },
                {
                    "internalType": "address",
                    "name": "to",
                    "type": "address"
                },
                {
                    "internalType": "uint256",
                    "name": "tokenId",
                    "type": "uint256"
                }
            ],
            "name": "transferFrom",
            "outputs": [],
            "stateMutability": "nonpayable",
            "type": "function"
        },
        {
            "inputs": [
                {
                    "internalType": "address",
                    "name": "newOwner",
                    "type": "address"
                }
            ],
            "name": "transferOwnership",
            "outputs": [],
            "stateMutability": "nonpayable",
            "type": "function"
        },
        {
            "inputs": [],
            "name": "unpause",
            "outputs": [],
            "stateMutability": "nonpayable",
            "type": "function"
        },
        {
            "inputs": [
                {
                    "internalType": "address",
                    "name": "",
                    "type": "address"
                }
            ],
            "name": "wCharitySale",
            "outputs": [
                {
                    "internalType": "uint8",
                    "name": "",
                    "type": "uint8"
                }
            ],
            "stateMutability": "view",
            "type": "function"
        },
        {
            "inputs": [
                {
                    "internalType": "address",
                    "name": "",
                    "type": "address"
                }
            ],
            "name": "wFreeSale",
            "outputs": [
                {
                    "internalType": "uint8",
                    "name": "",
                    "type": "uint8"
                }
            ],
            "stateMutability": "view",
            "type": "function"
        },
        {
            "inputs": [
                {
                    "internalType": "address",
                    "name": "",
                    "type": "address"
                }
            ],
            "name": "wSale",
            "outputs": [
                {
                    "internalType": "uint8",
                    "name": "",
                    "type": "uint8"
                }
            ],
            "stateMutability": "view",
            "type": "function"
        },
        {
            "inputs": [],
            "name": "wSalePrice",
            "outputs": [
                {
                    "internalType": "uint256",
                    "name": "",
                    "type": "uint256"
                }
            ],
            "stateMutability": "view",
            "type": "function"
        },
        {
            "stateMutability": "payable",
            "type": "receive"
        }
    ],
    "bytecode": "60c06040523480156200001157600080fd5b5060405162002cb638038062002cb6833981016040819052620000349162000235565b6040805180820182526007815266414a756e676c6560c81b6020808301918252835180850190945260058452644a4e474c4560d81b90840152815187938793929091620000849160009162000172565b5080516200009a90600190602084019062000172565b50506006805460ff1916905550620000b2336200010f565b606091821b6001600160601b031990811660a052911b16608052600882905566038d7ea4c68000600955600c805461ffff191661ffff831617905562000105600b62000169602090811b620015fe17901c565b50505050620002cc565b600680546001600160a01b03838116610100818102610100600160a81b031985161790945560405193909204169182907f8be0079c531659141344cd1fd0a4f28419497f9722a3daafe3b4186f6b6457e090600090a35050565b80546001019055565b82805462000180906200028f565b90600052602060002090601f016020900481019282620001a45760008555620001ef565b82601f10620001bf57805160ff1916838001178555620001ef565b82800160010185558215620001ef579182015b82811115620001ef578251825591602001919060010190620001d2565b50620001fd92915062000201565b5090565b5b80821115620001fd576000815560010162000202565b80516001600160a01b03811681146200023057600080fd5b919050565b600080600080608085870312156200024b578384fd5b620002568562000218565b9350620002666020860162000218565b925060408501519150606085015161ffff8116811462000284578182fd5b939692955090935050565b600181811c90821680620002a457607f821691505b60208210811415620002c657634e487b7160e01b600052602260045260246000fd5b50919050565b60805160601c60a05160601c6129b7620002ff600039600081816110d00152611ef601526000611ec701526129b76000f3fe6080604052600436106102555760003560e01c80637d7eee4211610139578063c03afb59116100b6578063e2e3e32f1161007a578063e2e3e32f1461072c578063e757c17d1461074c578063e831574214610762578063e985e9c51461077d578063f2fde38b146107c6578063ff977584146107e65761025c565b8063c03afb5914610683578063c87b56dd146106a3578063cdbbb9bd146106c3578063d58778d6146106d9578063e1a0c2f01461070c5761025c565b806395d89b41116100fd57806395d89b41146105de57806399898297146105f3578063a142824c14610613578063a22cb46514610643578063b88d4fde146106635761025c565b80637d7eee42146105455780637e482cd0146105655780638456cb59146105855780638da5cb5b1461059a57806394985ddd146105be5761025c565b80633eff84a1116101d25780636871ee40116101965780636871ee40146104b25780636a3f6fae146104ba5780636c3c7ae7146104da57806370a08231146104fa578063715018a61461051a5780637671fc8c1461052f5761025c565b80633eff84a1146104255780633f4ba83a1461044557806342842e0e1461045a5780635c975abb1461047a5780636352211e146104925761025c565b8063219c0eee11610219578063219c0eee1461033957806323b872dd1461036f57806323ecb9551461038f578063283f4328146103d15780633318e277146104015761025c565b806301ffc9a714610261578063055ad42e1461029657806306fdde03146102bd578063081812fc146102df578063095ea7b3146103175761025c565b3661025c57005b600080fd5b34801561026d57600080fd5b5061028161027c36600461254d565b610806565b60405190151581526020015b60405180910390f35b3480156102a257600080fd5b50600e546102b09060ff1681565b60405161028d919061269f565b3480156102c957600080fd5b506102d261085a565b60405161028d91906126c7565b3480156102eb57600080fd5b506102ff6102fa366004612514565b6108ec565b6040516001600160a01b03909116815260200161028d565b34801561032357600080fd5b5061033761033236600461249f565b610986565b005b34801561034557600080fd5b506102ff610354366004612514565b600a602052600090815260409020546001600160a01b031681565b34801561037b57600080fd5b5061033761038a366004612359565b610a9c565b34801561039b57600080fd5b506103bf6103aa36600461230d565b60136020526000908152604090205460ff1681565b60405160ff909116815260200161028d565b3480156103dd57600080fd5b506103bf6103ec36600461230d565b60146020526000908152604090205460ff1681565b34801561040d57600080fd5b5061041760115481565b60405190815260200161028d565b34801561043157600080fd5b50610337610440366004612514565b610acd565b34801561045157600080fd5b50610337610b02565b34801561046657600080fd5b50610337610475366004612359565b610b3c565b34801561048657600080fd5b5060065460ff16610281565b34801561049e57600080fd5b506102ff6104ad366004612514565b610b57565b610337610bce565b3480156104c657600080fd5b506103376104d53660046125a4565b610e8d565b3480156104e657600080fd5b506103376104f5366004612514565b610f05565b34801561050657600080fd5b5061041761051536600461230d565b610f3a565b34801561052657600080fd5b50610337610fc1565b34801561053b57600080fd5b50610417600f5481565b34801561055157600080fd5b50610337610560366004612514565b610ffb565b34801561057157600080fd5b506103376105803660046124c8565b611030565b34801561059157600080fd5b5061033761108d565b3480156105a657600080fd5b506102ff60065461010090046001600160a01b031690565b3480156105ca57600080fd5b506103376105d936600461252c565b6110c5565b3480156105ea57600080fd5b506102d261114b565b3480156105ff57600080fd5b5061033761060e3660046124c8565b61115a565b34801561061f57600080fd5b506103bf61062e36600461230d565b60156020526000908152604090205460ff1681565b34801561064f57600080fd5b5061033761065e366004612469565b6111b7565b34801561066f57600080fd5b5061033761067e366004612394565b6111c2565b34801561068f57600080fd5b5061033761069e366004612585565b6111fa565b3480156106af57600080fd5b506102d26106be366004612514565b61125f565b3480156106cf57600080fd5b5061041760125481565b3480156106e557600080fd5b506106f96106f4366004612514565b61133a565b60405161ffff909116815260200161028d565b34801561071857600080fd5b5061033761072736600461230d565b611372565b34801561073857600080fd5b50610337610747366004612514565b6114cb565b34801561075857600080fd5b5061041760105481565b34801561076e57600080fd5b50600c546106f99061ffff1681565b34801561078957600080fd5b50610281610798366004612327565b6001600160a01b03918216600090815260056020908152604080832093909416825291909152205460ff1690565b3480156107d257600080fd5b506103376107e136600461230d565b611500565b3480156107f257600080fd5b506103376108013660046124c8565b6115a1565b60006001600160e01b031982166380ac58cd60e01b148061083757506001600160e01b03198216635b5e139f60e01b145b8061085257506301ffc9a760e01b6001600160e01b03198316145b90505b919050565b6060600080546108699061283e565b80601f01602080910402602001604051908101604052809291908181526020018280546108959061283e565b80156108e25780601f106108b7576101008083540402835291602001916108e2565b820191906000526020600020905b8154815290600101906020018083116108c557829003601f168201915b5050505050905090565b6000818152600260205260408120546001600160a01b031661096a5760405162461bcd60e51b815260206004820152602c60248201527f4552433732313a20617070726f76656420717565727920666f72206e6f6e657860448201526b34b9ba32b73a103a37b5b2b760a11b60648201526084015b60405180910390fd5b506000908152600460205260409020546001600160a01b031690565b600061099182610b57565b9050806001600160a01b0316836001600160a01b031614156109ff5760405162461bcd60e51b815260206004820152602160248201527f4552433732313a20617070726f76616c20746f2063757272656e74206f776e656044820152603960f91b6064820152608401610961565b336001600160a01b0382161480610a1b5750610a1b8133610798565b610a8d5760405162461bcd60e51b815260206004820152603860248201527f4552433732313a20617070726f76652063616c6c6572206973206e6f74206f7760448201527f6e6572206e6f7220617070726f76656420666f7220616c6c00000000000000006064820152608401610961565b610a978383611607565b505050565b610aa63382611675565b610ac25760405162461bcd60e51b815260040161096190612761565b610a9783838361176c565b6006546001600160a01b03610100909104163314610afd5760405162461bcd60e51b81526004016109619061272c565b601155565b6006546001600160a01b03610100909104163314610b325760405162461bcd60e51b81526004016109619061272c565b610b3a611917565b565b610a97838383604051806020016040528060008152506111c2565b6000818152600260205260408120546001600160a01b0316806108525760405162461bcd60e51b815260206004820152602960248201527f4552433732313a206f776e657220717565727920666f72206e6f6e657869737460448201526832b73a103a37b5b2b760b91b6064820152608401610961565b3360009081526015602052604090205460ff1615610c8957601254341015610c435760405162461bcd60e51b815260206004820152602260248201527f43686172697479205061796d656e7420616d6f756e74206e6f7420636f72726560448201526118dd60f21b6064820152608401610961565b610c4c336119aa565b3360009081526015602052604081208054909190610c6c9060ff16612821565b91906101000a81548160ff021916908360ff160217905550610b3a565b6001600e5460ff166002811115610cb057634e487b7160e01b600052602160045260246000fd5b1415610d20576010543414610d125760405162461bcd60e51b815260206004820152602260248201527f50726573616c65205061796d656e7420616d6f756e74206e6f7420636f72726560448201526118dd60f21b6064820152608401610961565b610d1b336119aa565b610b3a565b6000600e5460ff166002811115610d4757634e487b7160e01b600052602160045260246000fd5b1415610e25573360009081526013602052604090205460ff16610d9f5760405162461bcd60e51b815260206004820152601060248201526f14985b881bdd5d081bd9881b1a5b5a5d60821b6044820152606401610961565b600f543414610dfc5760405162461bcd60e51b8152602060048201526024808201527f57686974656c697374205061796d656e7420616d6f756e74206e6f7420636f726044820152631c9958dd60e21b6064820152608401610961565b610e05336119aa565b3360009081526013602052604081208054909190610c6c9060ff16612821565b6011543414610e845760405162461bcd60e51b815260206004820152602560248201527f5075626c69632073616c65207061796d656e7420616d6f756e74206e6f7420656044820152640dcdeeaced60db1b6064820152608401610961565b610b3a336119aa565b815b818161ffff161015610a9757600d80546001810182556000919091527fd7b6990105719101dabeb77144f2a3385c8033acd3af97e9423a695e81ad1eb560108204018054600f9092166002026101000a61ffff818102199093169284160291909117905580610efd81612879565b915050610e8f565b6006546001600160a01b03610100909104163314610f355760405162461bcd60e51b81526004016109619061272c565b601255565b60006001600160a01b038216610fa55760405162461bcd60e51b815260206004820152602a60248201527f4552433732313a2062616c616e636520717565727920666f7220746865207a65604482015269726f206164647265737360b01b6064820152608401610961565b506001600160a01b031660009081526003602052604090205490565b6006546001600160a01b03610100909104163314610ff15760405162461bcd60e51b81526004016109619061272c565b610b3a60006119ea565b6006546001600160a01b0361010090910416331461102b5760405162461bcd60e51b81526004016109619061272c565b601055565b6006546001600160a01b036101009091041633146110605760405162461bcd60e51b81526004016109619061272c565b6001600160a01b03919091166000908152601360205260409020805460ff191660ff909216919091179055565b6006546001600160a01b036101009091041633146110bd5760405162461bcd60e51b81526004016109619061272c565b610b3a611a44565b336001600160a01b037f0000000000000000000000000000000000000000000000000000000000000000161461113d5760405162461bcd60e51b815260206004820152601f60248201527f4f6e6c7920565246436f6f7264696e61746f722063616e2066756c66696c6c006044820152606401610961565b6111478282611abf565b5050565b6060600180546108699061283e565b6006546001600160a01b0361010090910416331461118a5760405162461bcd60e51b81526004016109619061272c565b6001600160a01b03919091166000908152601460205260409020805460ff191660ff909216919091179055565b611147338383611c3b565b6111cc3383611675565b6111e85760405162461bcd60e51b815260040161096190612761565b6111f484848484611d0a565b50505050565b6006546001600160a01b0361010090910416331461122a5760405162461bcd60e51b81526004016109619061272c565b600e805482919060ff1916600183600281111561125757634e487b7160e01b600052602160045260246000fd5b021790555050565b6000818152600260205260409020546060906001600160a01b03166112de5760405162461bcd60e51b815260206004820152602f60248201527f4552433732314d657461646174613a2055524920717565727920666f72206e6f60448201526e3732bc34b9ba32b73a103a37b5b2b760891b6064820152608401610961565b60006112e8611d3d565b905060008151116113085760405180602001604052806000815250611333565b8061131284611d5d565b6040516020016113239291906125f3565b6040516020818303038152906040525b9392505050565b600d818154811061134a57600080fd5b9060005260206000209060109182820401919006600202915054906101000a900461ffff1681565b6006546001600160a01b036101009091041633146113a25760405162461bcd60e51b81526004016109619061272c565b6001600e5460ff1660028111156113c957634e487b7160e01b600052602160045260246000fd5b146114165760405162461bcd60e51b815260206004820152601960248201527f4e6f742074686520706861736520666f722070726573616c65000000000000006044820152606401610961565b6001600160a01b03811660009081526014602052604090205460ff1661147e5760405162461bcd60e51b815260206004820181905260248201527f4e6f7420667265652077686974656c697374656420666f722070726573616c656044820152606401610961565b611487816119aa565b6001600160a01b038116600090815260146020526040812080549091906114b09060ff16612821565b91906101000a81548160ff021916908360ff16021790555050565b6006546001600160a01b036101009091041633146114fb5760405162461bcd60e51b81526004016109619061272c565b600f55565b6006546001600160a01b036101009091041633146115305760405162461bcd60e51b81526004016109619061272c565b6001600160a01b0381166115955760405162461bcd60e51b815260206004820152602660248201527f4f776e61626c653a206e6577206f776e657220697320746865207a65726f206160448201526564647265737360d01b6064820152608401610961565b61159e816119ea565b50565b6006546001600160a01b036101009091041633146115d15760405162461bcd60e51b81526004016109619061272c565b6001600160a01b03919091166000908152601560205260409020805460ff191660ff909216919091179055565b80546001019055565b600081815260046020526040902080546001600160a01b0319166001600160a01b038416908117909155819061163c82610b57565b6001600160a01b03167f8c5be1e5ebec7d5bd14f71427d1e84f3dd0314c0f7b2291e5b200ac8c7c3b92560405160405180910390a45050565b6000818152600260205260408120546001600160a01b03166116ee5760405162461bcd60e51b815260206004820152602c60248201527f4552433732313a206f70657261746f7220717565727920666f72206e6f6e657860448201526b34b9ba32b73a103a37b5b2b760a11b6064820152608401610961565b60006116f983610b57565b9050806001600160a01b0316846001600160a01b031614806117345750836001600160a01b0316611729846108ec565b6001600160a01b0316145b8061176457506001600160a01b0380821660009081526005602090815260408083209388168352929052205460ff165b949350505050565b826001600160a01b031661177f82610b57565b6001600160a01b0316146117e75760405162461bcd60e51b815260206004820152602960248201527f4552433732313a207472616e73666572206f6620746f6b656e2074686174206960448201526839903737ba1037bbb760b91b6064820152608401610961565b6001600160a01b0382166118495760405162461bcd60e51b8152602060048201526024808201527f4552433732313a207472616e7366657220746f20746865207a65726f206164646044820152637265737360e01b6064820152608401610961565b611854838383611e78565b61185f600082611607565b6001600160a01b03831660009081526003602052604081208054600192906118889084906127de565b90915550506001600160a01b03821660009081526003602052604081208054600192906118b69084906127b2565b909155505060008181526002602052604080822080546001600160a01b0319166001600160a01b0386811691821790925591518493918716917fddf252ad1be2c89b69c2b068fc378daa952ba7f163c4a11628f55a4df523b3ef91a4505050565b60065460ff166119605760405162461bcd60e51b815260206004820152601460248201527314185d5cd8589b194e881b9bdd081c185d5cd95960621b6044820152606401610961565b6006805460ff191690557f5db9ee0a495bf2e6ff9c91a7834c1ba4fdd244a5e8aa4e537bd38aeae4b073aa335b6040516001600160a01b03909116815260200160405180910390a1565b60006119ba600854600954611ec3565b6000908152600a6020526040902080546001600160a01b0319166001600160a01b03939093169290921790915550565b600680546001600160a01b03838116610100818102610100600160a81b031985161790945560405193909204169182907f8be0079c531659141344cd1fd0a4f28419497f9722a3daafe3b4186f6b6457e090600090a35050565b60065460ff1615611a8a5760405162461bcd60e51b815260206004820152601060248201526f14185d5cd8589b194e881c185d5cd95960821b6044820152606401610961565b6006805460ff191660011790557f62e78cea01bee320cd4e420270b5ea74000d11b0c9f74754ebdbfc544b05a25861198d3390565b6000828152600a6020526040812054600d546001600160a01b039091169190611ae890846128b6565b90506000600d8281548110611b0d57634e487b7160e01b600052603260045260246000fd5b90600052602060002090601091828204019190066002029054906101000a900461ffff169050600d6001600d80549050611b4791906127de565b81548110611b6557634e487b7160e01b600052603260045260246000fd5b90600052602060002090601091828204019190066002029054906101000a900461ffff16600d8381548110611baa57634e487b7160e01b600052603260045260246000fd5b90600052602060002090601091828204019190066002026101000a81548161ffff021916908361ffff160217905550600d805480611bf857634e487b7160e01b600052603160045260246000fd5b60019003818190600052602060002090601091828204019190066002026101000a81549061ffff02191690559055611c34838261ffff1661204e565b5050505050565b816001600160a01b0316836001600160a01b03161415611c9d5760405162461bcd60e51b815260206004820152601960248201527f4552433732313a20617070726f766520746f2063616c6c6572000000000000006044820152606401610961565b6001600160a01b03838116600081815260056020908152604080832094871680845294825291829020805460ff191686151590811790915591519182527f17307eab39ab6107e8899845ad3d59bd9653f200f220920489ca2b5937696c31910160405180910390a3505050565b611d1584848461176c565b611d2184848484612068565b6111f45760405162461bcd60e51b8152600401610961906126da565b606060405180608001604052806051815260200161293160519139905090565b606081611d8257506040805180820190915260018152600360fc1b6020820152610855565b8160005b8115611dac5780611d968161289b565b9150611da59050600a836127ca565b9150611d86565b60008167ffffffffffffffff811115611dd557634e487b7160e01b600052604160045260246000fd5b6040519080825280601f01601f191660200182016040528015611dff576020820181803683370190505b5090505b841561176457611e146001836127de565b9150611e21600a866128b6565b611e2c9060306127b2565b60f81b818381518110611e4f57634e487b7160e01b600052603260045260246000fd5b60200101906001600160f81b031916908160001a905350611e71600a866127ca565b9450611e03565b60065460ff1615611ebe5760405162461bcd60e51b815260206004820152601060248201526f14185d5cd8589b194e881c185d5cd95960821b6044820152606401610961565b610a97565b60007f00000000000000000000000000000000000000000000000000000000000000006001600160a01b0316634000aea07f000000000000000000000000000000000000000000000000000000000000000084866000604051602001611f33929190918252602082015260400190565b6040516020818303038152906040526040518463ffffffff1660e01b8152600401611f609392919061266f565b602060405180830381600087803b158015611f7a57600080fd5b505af1158015611f8e573d6000803e3d6000fd5b505050506040513d601f19601f82011682018060405250810190611fb291906124f8565b50600083815260076020818152604080842054815180840189905280830186905230606082015260808082018390528351808303909101815260a09091019092528151918301919091209387905291905261200e9060016127b2565b6000858152600760205260409020556117648482604080516020808201949094528082019290925280518083038201815260609092019052805191012090565b611147828260405180602001604052806000815250612175565b60006001600160a01b0384163b1561216a57604051630a85bd0160e11b81526001600160a01b0385169063150b7a02906120ac903390899088908890600401612632565b602060405180830381600087803b1580156120c657600080fd5b505af19250505080156120f6575060408051601f3d908101601f191682019092526120f391810190612569565b60015b612150573d808015612124576040519150601f19603f3d011682016040523d82523d6000602084013e612129565b606091505b5080516121485760405162461bcd60e51b8152600401610961906126da565b805181602001fd5b6001600160e01b031916630a85bd0160e11b149050611764565b506001949350505050565b61217f83836121a8565b61218c6000848484612068565b610a975760405162461bcd60e51b8152600401610961906126da565b6001600160a01b0382166121fe5760405162461bcd60e51b815260206004820181905260248201527f4552433732313a206d696e7420746f20746865207a65726f20616464726573736044820152606401610961565b6000818152600260205260409020546001600160a01b0316156122635760405162461bcd60e51b815260206004820152601c60248201527f4552433732313a20746f6b656e20616c7265616479206d696e746564000000006044820152606401610961565b61226f60008383611e78565b6001600160a01b03821660009081526003602052604081208054600192906122989084906127b2565b909155505060008181526002602052604080822080546001600160a01b0319166001600160a01b03861690811790915590518392907fddf252ad1be2c89b69c2b068fc378daa952ba7f163c4a11628f55a4df523b3ef908290a45050565b80356001600160a01b038116811461085557600080fd5b60006020828403121561231e578081fd5b611333826122f6565b60008060408385031215612339578081fd5b612342836122f6565b9150612350602084016122f6565b90509250929050565b60008060006060848603121561236d578081fd5b612376846122f6565b9250612384602085016122f6565b9150604084013590509250925092565b600080600080608085870312156123a9578081fd5b6123b2856122f6565b93506123c0602086016122f6565b925060408501359150606085013567ffffffffffffffff808211156123e3578283fd5b818701915087601f8301126123f6578283fd5b813581811115612408576124086128f6565b604051601f8201601f19908116603f01168101908382118183101715612430576124306128f6565b816040528281528a6020848701011115612448578586fd5b82602086016020830137918201602001949094529598949750929550505050565b6000806040838503121561247b578182fd5b612484836122f6565b915060208301356124948161290c565b809150509250929050565b600080604083850312156124b1578182fd5b6124ba836122f6565b946020939093013593505050565b600080604083850312156124da578182fd5b6124e3836122f6565b9150602083013560ff81168114612494578182fd5b600060208284031215612509578081fd5b81516113338161290c565b600060208284031215612525578081fd5b5035919050565b6000806040838503121561253e578182fd5b50508035926020909101359150565b60006020828403121561255e578081fd5b81356113338161291a565b60006020828403121561257a578081fd5b81516113338161291a565b600060208284031215612596578081fd5b813560038110611333578182fd5b600080604083850312156125b6578182fd5b823561ffff811681146124ba578283fd5b600081518084526125df8160208601602086016127f5565b601f01601f19169290920160200192915050565b600083516126058184602088016127f5565b8351908301906126198183602088016127f5565b64173539b7b760d91b9101908152600501949350505050565b6001600160a01b0385811682528416602082015260408101839052608060608201819052600090612665908301846125c7565b9695505050505050565b600060018060a01b03851682528360208301526060604083015261269660608301846125c7565b95945050505050565b60208101600383106126c157634e487b7160e01b600052602160045260246000fd5b91905290565b60006020825261133360208301846125c7565b60208082526032908201527f4552433732313a207472616e7366657220746f206e6f6e20455243373231526560408201527131b2b4bb32b91034b6b83632b6b2b73a32b960711b606082015260800190565b6020808252818101527f4f776e61626c653a2063616c6c6572206973206e6f7420746865206f776e6572604082015260600190565b60208082526031908201527f4552433732313a207472616e736665722063616c6c6572206973206e6f74206f6040820152701ddb995c881b9bdc88185c1c1c9bdd9959607a1b606082015260800190565b600082198211156127c5576127c56128ca565b500190565b6000826127d9576127d96128e0565b500490565b6000828210156127f0576127f06128ca565b500390565b60005b838110156128105781810151838201526020016127f8565b838111156111f45750506000910152565b600060ff821680612834576128346128ca565b6000190192915050565b600181811c9082168061285257607f821691505b6020821081141561287357634e487b7160e01b600052602260045260246000fd5b50919050565b600061ffff80831681811415612891576128916128ca565b6001019392505050565b60006000198214156128af576128af6128ca565b5060010190565b6000826128c5576128c56128e0565b500690565b634e487b7160e01b600052601160045260246000fd5b634e487b7160e01b600052601260045260246000fd5b634e487b7160e01b600052604160045260246000fd5b801515811461159e57600080fd5b6001600160e01b03198116811461159e57600080fdfe68747470733a2f2f697066732e696f2f697066732f6261667962656966326b626236363470766774756536656a666679333567776d736a7562683235616b366637777a666a356e3662716c363574716d2fa2646970667358221220ab61597ce88d9c9949f4ab0b0b4523791b9d9673f88091759d159dd6eff6c99364736f6c63430008030033",
    "sourcePath": "/media/yash/fc51dc5b-56d1-4d01-8310-d7b0048238d51/AJungleNFT/web3/contracts/AJungleV3.sol",
    "compiler": {
        "name": "solc",
        "version": "0.8.3+commit.8d00100c"
    },
    "functionHashes": {
        "addCharitySale(address,uint8)": "ff977584",
        "addWFreeSale(address,uint8)": "99898297",
        "addWSale(address,uint8)": "7e482cd0",
        "approve(address,uint256)": "095ea7b3",
        "balanceOf(address)": "70a08231",
        "charityMintPrice()": "cdbbb9bd",
        "currentPhase()": "055ad42e",
        "getApproved(uint256)": "081812fc",
        "isApprovedForAll(address,address)": "e985e9c5",
        "maxTokens()": "e8315742",
        "name()": "06fdde03",
        "owner()": "8da5cb5b",
        "ownerOf(uint256)": "6352211e",
        "pause()": "8456cb59",
        "paused()": "5c975abb",
        "populateTokenIds(uint16,uint256)": "6a3f6fae",
        "preSalePrice()": "e757c17d",
        "pubSalePrice()": "3318e277",
        "rawFulfillRandomness(bytes32,uint256)": "94985ddd",
        "renounceOwnership()": "715018a6",
        "requestIdToSender(bytes32)": "219c0eee",
        "safeMint()": "6871ee40",
        "safeMintAddress(address)": "e1a0c2f0",
        "safeTransferFrom(address,address,uint256)": "42842e0e",
        "safeTransferFrom(address,address,uint256,bytes)": "b88d4fde",
        "setApprovalForAll(address,bool)": "a22cb465",
        "setCharityMintPrice(uint256)": "6c3c7ae7",
        "setPhase(uint8)": "c03afb59",
        "setPreSalePrice(uint256)": "7d7eee42",
        "setPubSalePrice(uint256)": "3eff84a1",
        "setWSalePrice(uint256)": "e2e3e32f",
        "supportsInterface(bytes4)": "01ffc9a7",
        "symbol()": "95d89b41",
        "tokenIds(uint256)": "d58778d6",
        "tokenURI(uint256)": "c87b56dd",
        "transferFrom(address,address,uint256)": "23b872dd",
        "transferOwnership(address)": "f2fde38b",
        "unpause()": "3f4ba83a",
        "wCharitySale(address)": "a142824c",
        "wFreeSale(address)": "283f4328",
        "wSale(address)": "23ecb955",
        "wSalePrice()": "7671fc8c"
    },
    "gasEstimates": {
        "creation": {
            "codeDepositCost": "2135800",
            "executionCost": "infinite",
            "totalCost": "infinite"
        },
        "external": {
            "addCharitySale(address,uint8)": "22305",
            "addWFreeSale(address,uint8)": "22218",
            "addWSale(address,uint8)": "22219",
            "approve(address,uint256)": "infinite",
            "balanceOf(address)": "1400",
            "charityMintPrice()": "1084",
            "currentPhase()": "1120",
            "getApproved(uint256)": "2205",
            "isApprovedForAll(address,address)": "infinite",
            "maxTokens()": "1101",
            "name()": "infinite",
            "owner()": "1157",
            "ownerOf(uint256)": "1390",
            "pause()": "23854",
            "paused()": "1105",
            "populateTokenIds(uint16,uint256)": "infinite",
            "preSalePrice()": "1061",
            "pubSalePrice()": "1129",
            "rawFulfillRandomness(bytes32,uint256)": "infinite",
            "renounceOwnership()": "23583",
            "requestIdToSender(bytes32)": "1223",
            "safeMint()": "infinite",
            "safeMintAddress(address)": "infinite",
            "safeTransferFrom(address,address,uint256)": "infinite",
            "safeTransferFrom(address,address,uint256,bytes)": "infinite",
            "setApprovalForAll(address,bool)": "23426",
            "setCharityMintPrice(uint256)": "21167",
            "setPhase(uint8)": "22019",
            "setPreSalePrice(uint256)": "21124",
            "setPubSalePrice(uint256)": "21124",
            "setWSalePrice(uint256)": "21122",
            "supportsInterface(bytes4)": "561",
            "symbol()": "infinite",
            "tokenIds(uint256)": "3758",
            "tokenURI(uint256)": "infinite",
            "transferFrom(address,address,uint256)": "infinite",
            "transferOwnership(address)": "23777",
            "unpause()": "23809",
            "wCharitySale(address)": "1323",
            "wFreeSale(address)": "1346",
            "wSale(address)": "1324",
            "wSalePrice()": "1150"
        },
        "internal": {
            "_baseURI()": "infinite",
            "_beforeTokenTransfer(address,address,uint256)": "infinite",
            "fulfillRandomness(bytes32,uint256)": "infinite",
            "mintIt(address)": "infinite"
        }
    }
}