{
    "contractName": "AJungleV2",
    "abi": [
        {
            "inputs": [],
            "stateMutability": "nonpayable",
            "type": "constructor"
        },
        {
            "anonymous": false,
            "inputs": [
                {
                    "indexed": true,
                    "internalType": "address",
                    "name": "owner",
                    "type": "address"
                },
                {
                    "indexed": true,
                    "internalType": "address",
                    "name": "approved",
                    "type": "address"
                },
                {
                    "indexed": true,
                    "internalType": "uint256",
                    "name": "tokenId",
                    "type": "uint256"
                }
            ],
            "name": "Approval",
            "type": "event"
        },
        {
            "anonymous": false,
            "inputs": [
                {
                    "indexed": true,
                    "internalType": "address",
                    "name": "owner",
                    "type": "address"
                },
                {
                    "indexed": true,
                    "internalType": "address",
                    "name": "operator",
                    "type": "address"
                },
                {
                    "indexed": false,
                    "internalType": "bool",
                    "name": "approved",
                    "type": "bool"
                }
            ],
            "name": "ApprovalForAll",
            "type": "event"
        },
        {
            "anonymous": false,
            "inputs": [
                {
                    "indexed": false,
                    "internalType": "address",
                    "name": "",
                    "type": "address"
                },
                {
                    "indexed": false,
                    "internalType": "uint256",
                    "name": "",
                    "type": "uint256"
                }
            ],
            "name": "MintAllowed",
            "type": "event"
        },
        {
            "anonymous": false,
            "inputs": [
                {
                    "indexed": true,
                    "internalType": "address",
                    "name": "previousOwner",
                    "type": "address"
                },
                {
                    "indexed": true,
                    "internalType": "address",
                    "name": "newOwner",
                    "type": "address"
                }
            ],
            "name": "OwnershipTransferred",
            "type": "event"
        },
        {
            "anonymous": false,
            "inputs": [
                {
                    "indexed": false,
                    "internalType": "address",
                    "name": "account",
                    "type": "address"
                }
            ],
            "name": "Paused",
            "type": "event"
        },
        {
            "anonymous": false,
            "inputs": [
                {
                    "indexed": true,
                    "internalType": "address",
                    "name": "from",
                    "type": "address"
                },
                {
                    "indexed": true,
                    "internalType": "address",
                    "name": "to",
                    "type": "address"
                },
                {
                    "indexed": true,
                    "internalType": "uint256",
                    "name": "tokenId",
                    "type": "uint256"
                }
            ],
            "name": "Transfer",
            "type": "event"
        },
        {
            "anonymous": false,
            "inputs": [
                {
                    "indexed": false,
                    "internalType": "address",
                    "name": "account",
                    "type": "address"
                }
            ],
            "name": "Unpaused",
            "type": "event"
        },
        {
            "inputs": [
                {
                    "internalType": "address",
                    "name": "_address",
                    "type": "address"
                },
                {
                    "internalType": "uint8",
                    "name": "_count",
                    "type": "uint8"
                }
            ],
            "name": "addWFreeSale",
            "outputs": [],
            "stateMutability": "nonpayable",
            "type": "function"
        },
        {
            "inputs": [
                {
                    "internalType": "address",
                    "name": "_address",
                    "type": "address"
                },
                {
                    "internalType": "uint8",
                    "name": "_count",
                    "type": "uint8"
                }
            ],
            "name": "addWSale",
            "outputs": [],
            "stateMutability": "nonpayable",
            "type": "function"
        },
        {
            "inputs": [
                {
                    "internalType": "address",
                    "name": "to",
                    "type": "address"
                },
                {
                    "internalType": "uint256",
                    "name": "tokenId",
                    "type": "uint256"
                }
            ],
            "name": "approve",
            "outputs": [],
            "stateMutability": "nonpayable",
            "type": "function"
        },
        {
            "inputs": [
                {
                    "internalType": "address",
                    "name": "owner",
                    "type": "address"
                }
            ],
            "name": "balanceOf",
            "outputs": [
                {
                    "internalType": "uint256",
                    "name": "",
                    "type": "uint256"
                }
            ],
            "stateMutability": "view",
            "type": "function"
        },
        {
            "inputs": [],
            "name": "currentPhase",
            "outputs": [
                {
                    "internalType": "enum AJungleV2.Phase",
                    "name": "",
                    "type": "uint8"
                }
            ],
            "stateMutability": "view",
            "type": "function"
        },
        {
            "inputs": [
                {
                    "internalType": "uint256",
                    "name": "tokenId",
                    "type": "uint256"
                }
            ],
            "name": "getApproved",
            "outputs": [
                {
                    "internalType": "address",
                    "name": "",
                    "type": "address"
                }
            ],
            "stateMutability": "view",
            "type": "function"
        },
        {
            "inputs": [
                {
                    "internalType": "address",
                    "name": "owner",
                    "type": "address"
                },
                {
                    "internalType": "address",
                    "name": "operator",
                    "type": "address"
                }
            ],
            "name": "isApprovedForAll",
            "outputs": [
                {
                    "internalType": "bool",
                    "name": "",
                    "type": "bool"
                }
            ],
            "stateMutability": "view",
            "type": "function"
        },
        {
            "inputs": [],
            "name": "name",
            "outputs": [
                {
                    "internalType": "string",
                    "name": "",
                    "type": "string"
                }
            ],
            "stateMutability": "view",
            "type": "function"
        },
        {
            "inputs": [],
            "name": "owner",
            "outputs": [
                {
                    "internalType": "address",
                    "name": "",
                    "type": "address"
                }
            ],
            "stateMutability": "view",
            "type": "function"
        },
        {
            "inputs": [
                {
                    "internalType": "uint256",
                    "name": "tokenId",
                    "type": "uint256"
                }
            ],
            "name": "ownerOf",
            "outputs": [
                {
                    "internalType": "address",
                    "name": "",
                    "type": "address"
                }
            ],
            "stateMutability": "view",
            "type": "function"
        },
        {
            "inputs": [],
            "name": "pause",
            "outputs": [],
            "stateMutability": "nonpayable",
            "type": "function"
        },
        {
            "inputs": [],
            "name": "paused",
            "outputs": [
                {
                    "internalType": "bool",
                    "name": "",
                    "type": "bool"
                }
            ],
            "stateMutability": "view",
            "type": "function"
        },
        {
            "inputs": [],
            "name": "pubSalePrice",
            "outputs": [
                {
                    "internalType": "uint256",
                    "name": "",
                    "type": "uint256"
                }
            ],
            "stateMutability": "view",
            "type": "function"
        },
        {
            "inputs": [],
            "name": "renounceOwnership",
            "outputs": [],
            "stateMutability": "nonpayable",
            "type": "function"
        },
        {
            "inputs": [
                {
                    "internalType": "address",
                    "name": "to",
                    "type": "address"
                }
            ],
            "name": "safeMint",
            "outputs": [],
            "stateMutability": "payable",
            "type": "function"
        },
        {
            "inputs": [],
            "name": "safeMint",
            "outputs": [],
            "stateMutability": "payable",
            "type": "function"
        },
        {
            "inputs": [
                {
                    "internalType": "address",
                    "name": "from",
                    "type": "address"
                },
                {
                    "internalType": "address",
                    "name": "to",
                    "type": "address"
                },
                {
                    "internalType": "uint256",
                    "name": "tokenId",
                    "type": "uint256"
                }
            ],
            "name": "safeTransferFrom",
            "outputs": [],
            "stateMutability": "nonpayable",
            "type": "function"
        },
        {
            "inputs": [
                {
                    "internalType": "address",
                    "name": "from",
                    "type": "address"
                },
                {
                    "internalType": "address",
                    "name": "to",
                    "type": "address"
                },
                {
                    "internalType": "uint256",
                    "name": "tokenId",
                    "type": "uint256"
                },
                {
                    "internalType": "bytes",
                    "name": "_data",
                    "type": "bytes"
                }
            ],
            "name": "safeTransferFrom",
            "outputs": [],
            "stateMutability": "nonpayable",
            "type": "function"
        },
        {
            "inputs": [
                {
                    "internalType": "address",
                    "name": "operator",
                    "type": "address"
                },
                {
                    "internalType": "bool",
                    "name": "approved",
                    "type": "bool"
                }
            ],
            "name": "setApprovalForAll",
            "outputs": [],
            "stateMutability": "nonpayable",
            "type": "function"
        },
        {
            "inputs": [
                {
                    "internalType": "enum AJungleV2.Phase",
                    "name": "_phase",
                    "type": "uint8"
                }
            ],
            "name": "setPhase",
            "outputs": [],
            "stateMutability": "nonpayable",
            "type": "function"
        },
        {
            "inputs": [
                {
                    "internalType": "uint256",
                    "name": "_price",
                    "type": "uint256"
                }
            ],
            "name": "setPubSalePrice",
            "outputs": [],
            "stateMutability": "nonpayable",
            "type": "function"
        },
        {
            "inputs": [
                {
                    "internalType": "uint256",
                    "name": "_price",
                    "type": "uint256"
                }
            ],
            "name": "setWSalePrice",
            "outputs": [],
            "stateMutability": "nonpayable",
            "type": "function"
        },
        {
            "inputs": [
                {
                    "internalType": "bytes4",
                    "name": "interfaceId",
                    "type": "bytes4"
                }
            ],
            "name": "supportsInterface",
            "outputs": [
                {
                    "internalType": "bool",
                    "name": "",
                    "type": "bool"
                }
            ],
            "stateMutability": "view",
            "type": "function"
        },
        {
            "inputs": [],
            "name": "symbol",
            "outputs": [
                {
                    "internalType": "string",
                    "name": "",
                    "type": "string"
                }
            ],
            "stateMutability": "view",
            "type": "function"
        },
        {
            "inputs": [
                {
                    "internalType": "uint256",
                    "name": "tokenId",
                    "type": "uint256"
                }
            ],
            "name": "tokenURI",
            "outputs": [
                {
                    "internalType": "string",
                    "name": "",
                    "type": "string"
                }
            ],
            "stateMutability": "view",
            "type": "function"
        },
        {
            "inputs": [
                {
                    "internalType": "address",
                    "name": "from",
                    "type": "address"
                },
                {
                    "internalType": "address",
                    "name": "to",
                    "type": "address"
                },
                {
                    "internalType": "uint256",
                    "name": "tokenId",
                    "type": "uint256"
                }
            ],
            "name": "transferFrom",
            "outputs": [],
            "stateMutability": "nonpayable",
            "type": "function"
        },
        {
            "inputs": [
                {
                    "internalType": "address",
                    "name": "newOwner",
                    "type": "address"
                }
            ],
            "name": "transferOwnership",
            "outputs": [],
            "stateMutability": "nonpayable",
            "type": "function"
        },
        {
            "inputs": [],
            "name": "unpause",
            "outputs": [],
            "stateMutability": "nonpayable",
            "type": "function"
        },
        {
            "inputs": [
                {
                    "internalType": "address",
                    "name": "",
                    "type": "address"
                }
            ],
            "name": "wFreeSale",
            "outputs": [
                {
                    "internalType": "uint8",
                    "name": "",
                    "type": "uint8"
                }
            ],
            "stateMutability": "view",
            "type": "function"
        },
        {
            "inputs": [
                {
                    "internalType": "address",
                    "name": "",
                    "type": "address"
                }
            ],
            "name": "wSale",
            "outputs": [
                {
                    "internalType": "uint8",
                    "name": "",
                    "type": "uint8"
                }
            ],
            "stateMutability": "view",
            "type": "function"
        },
        {
            "inputs": [],
            "name": "wSalePrice",
            "outputs": [
                {
                    "internalType": "uint256",
                    "name": "",
                    "type": "uint256"
                }
            ],
            "stateMutability": "view",
            "type": "function"
        }
    ],
    "bytecode": "60806040523480156200001157600080fd5b506040805180820182526007815266414a756e676c6560c81b6020808301918252835180850190945260058452644a4e474c4560d81b9084015281519192916200005e91600091620000ec565b50805162000074906001906020840190620000ec565b50506006805460ff19169055506200008c3362000092565b620001cf565b600680546001600160a01b03838116610100818102610100600160a81b031985161790945560405193909204169182907f8be0079c531659141344cd1fd0a4f28419497f9722a3daafe3b4186f6b6457e090600090a35050565b828054620000fa9062000192565b90600052602060002090601f0160209004810192826200011e576000855562000169565b82601f106200013957805160ff191683800117855562000169565b8280016001018555821562000169579182015b82811115620001695782518255916020019190600101906200014c565b50620001779291506200017b565b5090565b5b808211156200017757600081556001016200017c565b600181811c90821680620001a757607f821691505b60208210811415620001c957634e487b7160e01b600052602260045260246000fd5b50919050565b611ed280620001df6000396000f3fe6080604052600436106101d85760003560e01c80636871ee40116101025780639989829711610095578063c87b56dd11610064578063c87b56dd1461054b578063e2e3e32f1461056b578063e985e9c51461058b578063f2fde38b146105d457600080fd5b806399898297146104cb578063a22cb465146104eb578063b88d4fde1461050b578063c03afb591461052b57600080fd5b80637e482cd0116100d15780637e482cd01461045e5780638456cb591461047e5780638da5cb5b1461049357806395d89b41146104b657600080fd5b80636871ee401461040b57806370a0823114610413578063715018a6146104335780637671fc8c1461044857600080fd5b8063283f43281161017a57806340d097c31161014957806340d097c3146103a057806342842e0e146103b35780635c975abb146103d35780636352211e146103eb57600080fd5b8063283f4328146103175780633318e277146103475780633eff84a11461036b5780633f4ba83a1461038b57600080fd5b8063081812fc116101b6578063081812fc1461025b578063095ea7b31461029357806323b872dd146102b557806323ecb955146102d557600080fd5b806301ffc9a7146101dd578063055ad42e1461021257806306fdde0314610239575b600080fd5b3480156101e957600080fd5b506101fd6101f83660046118cb565b6105f4565b60405190151581526020015b60405180910390f35b34801561021e57600080fd5b5060085461022c9060ff1681565b60405161020991906118fe565b34801561024557600080fd5b5061024e610646565b604051610209919061197e565b34801561026757600080fd5b5061027b610276366004611991565b6106d8565b6040516001600160a01b039091168152602001610209565b34801561029f57600080fd5b506102b36102ae3660046119c6565b610772565b005b3480156102c157600080fd5b506102b36102d03660046119f0565b610888565b3480156102e157600080fd5b506103056102f0366004611a2c565b600b6020526000908152604090205460ff1681565b60405160ff9091168152602001610209565b34801561032357600080fd5b50610305610332366004611a2c565b600c6020526000908152604090205460ff1681565b34801561035357600080fd5b5061035d600a5481565b604051908152602001610209565b34801561037757600080fd5b506102b3610386366004611991565b6108b9565b34801561039757600080fd5b506102b36108ee565b6102b36103ae366004611a2c565b610928565b3480156103bf57600080fd5b506102b36103ce3660046119f0565b610a36565b3480156103df57600080fd5b5060065460ff166101fd565b3480156103f757600080fd5b5061027b610406366004611991565b610a51565b6102b3610ac8565b34801561041f57600080fd5b5061035d61042e366004611a2c565b610b34565b34801561043f57600080fd5b506102b3610bbb565b34801561045457600080fd5b5061035d60095481565b34801561046a57600080fd5b506102b3610479366004611a47565b610bf5565b34801561048a57600080fd5b506102b3610c52565b34801561049f57600080fd5b5060065461010090046001600160a01b031661027b565b3480156104c257600080fd5b5061024e610c8a565b3480156104d757600080fd5b506102b36104e6366004611a47565b610c99565b3480156104f757600080fd5b506102b3610506366004611a84565b610cf6565b34801561051757600080fd5b506102b3610526366004611acb565b610d01565b34801561053757600080fd5b506102b3610546366004611ba7565b610d39565b34801561055757600080fd5b5061024e610566366004611991565b610d90565b34801561057757600080fd5b506102b3610586366004611991565b610e6b565b34801561059757600080fd5b506101fd6105a6366004611bc8565b6001600160a01b03918216600090815260056020908152604080832093909416825291909152205460ff1690565b3480156105e057600080fd5b506102b36105ef366004611a2c565b610ea0565b60006001600160e01b031982166380ac58cd60e01b148061062557506001600160e01b03198216635b5e139f60e01b145b8061064057506301ffc9a760e01b6001600160e01b03198316145b92915050565b60606000805461065590611bfb565b80601f016020809104026020016040519081016040528092919081815260200182805461068190611bfb565b80156106ce5780601f106106a3576101008083540402835291602001916106ce565b820191906000526020600020905b8154815290600101906020018083116106b157829003601f168201915b5050505050905090565b6000818152600260205260408120546001600160a01b03166107565760405162461bcd60e51b815260206004820152602c60248201527f4552433732313a20617070726f76656420717565727920666f72206e6f6e657860448201526b34b9ba32b73a103a37b5b2b760a11b60648201526084015b60405180910390fd5b506000908152600460205260409020546001600160a01b031690565b600061077d82610a51565b9050806001600160a01b0316836001600160a01b031614156107eb5760405162461bcd60e51b815260206004820152602160248201527f4552433732313a20617070726f76616c20746f2063757272656e74206f776e656044820152603960f91b606482015260840161074d565b336001600160a01b0382161480610807575061080781336105a6565b6108795760405162461bcd60e51b815260206004820152603860248201527f4552433732313a20617070726f76652063616c6c6572206973206e6f74206f7760448201527f6e6572206e6f7220617070726f76656420666f7220616c6c0000000000000000606482015260840161074d565b6108838383610f3e565b505050565b6108923382610fac565b6108ae5760405162461bcd60e51b815260040161074d90611c36565b6108838383836110a3565b6006546001600160a01b036101009091041633146108e95760405162461bcd60e51b815260040161074d90611c87565b600a55565b6006546001600160a01b0361010090910416331461091e5760405162461bcd60e51b815260040161074d90611c87565b61092661124e565b565b6006546001600160a01b036101009091041633146109585760405162461bcd60e51b815260040161074d90611c87565b600060085460ff166002811115610971576109716118e8565b14156109c2576001600160a01b0381166000908152600b602052604090205460ff16156109bf5760006109a360075490565b90506109b3600780546001019055565b6109bd82826112e1565b505b50565b600160085460ff1660028111156109db576109db6118e8565b14156109e45750565b600a54341015610a2b5760405162461bcd60e51b81526020600482015260126024820152710a0c2f2dacadce840dcdee840cadcdeeaced60731b604482015260640161074d565b60006109a360075490565b61088383838360405180602001604052806000815250610d01565b6000818152600260205260408120546001600160a01b0316806106405760405162461bcd60e51b815260206004820152602960248201527f4552433732313a206f776e657220717565727920666f72206e6f6e657869737460448201526832b73a103a37b5b2b760b91b606482015260840161074d565b600a54341015610b0f5760405162461bcd60e51b81526020600482015260126024820152710a0c2f2dacadce840dcdee840cadcdeeaced60731b604482015260640161074d565b6000610b1a60075490565b9050610b2a600780546001019055565b6109bf33826112e1565b60006001600160a01b038216610b9f5760405162461bcd60e51b815260206004820152602a60248201527f4552433732313a2062616c616e636520717565727920666f7220746865207a65604482015269726f206164647265737360b01b606482015260840161074d565b506001600160a01b031660009081526003602052604090205490565b6006546001600160a01b03610100909104163314610beb5760405162461bcd60e51b815260040161074d90611c87565b61092660006112fb565b6006546001600160a01b03610100909104163314610c255760405162461bcd60e51b815260040161074d90611c87565b6001600160a01b03919091166000908152600b60205260409020805460ff191660ff909216919091179055565b6006546001600160a01b03610100909104163314610c825760405162461bcd60e51b815260040161074d90611c87565b610926611355565b60606001805461065590611bfb565b6006546001600160a01b03610100909104163314610cc95760405162461bcd60e51b815260040161074d90611c87565b6001600160a01b03919091166000908152600c60205260409020805460ff191660ff909216919091179055565b6109bd3383836113d0565b610d0b3383610fac565b610d275760405162461bcd60e51b815260040161074d90611c36565b610d338484848461149f565b50505050565b6006546001600160a01b03610100909104163314610d695760405162461bcd60e51b815260040161074d90611c87565b6008805482919060ff19166001836002811115610d8857610d886118e8565b021790555050565b6000818152600260205260409020546060906001600160a01b0316610e0f5760405162461bcd60e51b815260206004820152602f60248201527f4552433732314d657461646174613a2055524920717565727920666f72206e6f60448201526e3732bc34b9ba32b73a103a37b5b2b760891b606482015260840161074d565b6000610e196114d2565b90506000815111610e395760405180602001604052806000815250610e64565b80610e43846114f2565b604051602001610e54929190611cbc565b6040516020818303038152906040525b9392505050565b6006546001600160a01b03610100909104163314610e9b5760405162461bcd60e51b815260040161074d90611c87565b600955565b6006546001600160a01b03610100909104163314610ed05760405162461bcd60e51b815260040161074d90611c87565b6001600160a01b038116610f355760405162461bcd60e51b815260206004820152602660248201527f4f776e61626c653a206e6577206f776e657220697320746865207a65726f206160448201526564647265737360d01b606482015260840161074d565b6109bf816112fb565b600081815260046020526040902080546001600160a01b0319166001600160a01b0384169081179091558190610f7382610a51565b6001600160a01b03167f8c5be1e5ebec7d5bd14f71427d1e84f3dd0314c0f7b2291e5b200ac8c7c3b92560405160405180910390a45050565b6000818152600260205260408120546001600160a01b03166110255760405162461bcd60e51b815260206004820152602c60248201527f4552433732313a206f70657261746f7220717565727920666f72206e6f6e657860448201526b34b9ba32b73a103a37b5b2b760a11b606482015260840161074d565b600061103083610a51565b9050806001600160a01b0316846001600160a01b0316148061106b5750836001600160a01b0316611060846106d8565b6001600160a01b0316145b8061109b57506001600160a01b0380821660009081526005602090815260408083209388168352929052205460ff165b949350505050565b826001600160a01b03166110b682610a51565b6001600160a01b03161461111e5760405162461bcd60e51b815260206004820152602960248201527f4552433732313a207472616e73666572206f6620746f6b656e2074686174206960448201526839903737ba1037bbb760b91b606482015260840161074d565b6001600160a01b0382166111805760405162461bcd60e51b8152602060048201526024808201527f4552433732313a207472616e7366657220746f20746865207a65726f206164646044820152637265737360e01b606482015260840161074d565b61118b8383836115f0565b611196600082610f3e565b6001600160a01b03831660009081526003602052604081208054600192906111bf908490611d01565b90915550506001600160a01b03821660009081526003602052604081208054600192906111ed908490611d18565b909155505060008181526002602052604080822080546001600160a01b0319166001600160a01b0386811691821790925591518493918716917fddf252ad1be2c89b69c2b068fc378daa952ba7f163c4a11628f55a4df523b3ef91a4505050565b60065460ff166112975760405162461bcd60e51b815260206004820152601460248201527314185d5cd8589b194e881b9bdd081c185d5cd95960621b604482015260640161074d565b6006805460ff191690557f5db9ee0a495bf2e6ff9c91a7834c1ba4fdd244a5e8aa4e537bd38aeae4b073aa335b6040516001600160a01b03909116815260200160405180910390a1565b6109bd828260405180602001604052806000815250611636565b600680546001600160a01b03838116610100818102610100600160a81b031985161790945560405193909204169182907f8be0079c531659141344cd1fd0a4f28419497f9722a3daafe3b4186f6b6457e090600090a35050565b60065460ff161561139b5760405162461bcd60e51b815260206004820152601060248201526f14185d5cd8589b194e881c185d5cd95960821b604482015260640161074d565b6006805460ff191660011790557f62e78cea01bee320cd4e420270b5ea74000d11b0c9f74754ebdbfc544b05a2586112c43390565b816001600160a01b0316836001600160a01b031614156114325760405162461bcd60e51b815260206004820152601960248201527f4552433732313a20617070726f766520746f2063616c6c657200000000000000604482015260640161074d565b6001600160a01b03838116600081815260056020908152604080832094871680845294825291829020805460ff191686151590811790915591519182527f17307eab39ab6107e8899845ad3d59bd9653f200f220920489ca2b5937696c31910160405180910390a3505050565b6114aa8484846110a3565b6114b684848484611669565b610d335760405162461bcd60e51b815260040161074d90611d30565b6060604051806080016040528060518152602001611e4c60519139905090565b6060816115165750506040805180820190915260018152600360fc1b602082015290565b8160005b8115611540578061152a81611d82565b91506115399050600a83611db3565b915061151a565b60008167ffffffffffffffff81111561155b5761155b611ab5565b6040519080825280601f01601f191660200182016040528015611585576020820181803683370190505b5090505b841561109b5761159a600183611d01565b91506115a7600a86611dc7565b6115b2906030611d18565b60f81b8183815181106115c7576115c7611ddb565b60200101906001600160f81b031916908160001a9053506115e9600a86611db3565b9450611589565b60065460ff16156108835760405162461bcd60e51b815260206004820152601060248201526f14185d5cd8589b194e881c185d5cd95960821b604482015260640161074d565b6116408383611767565b61164d6000848484611669565b6108835760405162461bcd60e51b815260040161074d90611d30565b60006001600160a01b0384163b1561175c57604051630a85bd0160e11b81526001600160a01b0385169063150b7a02906116ad903390899088908890600401611df1565b6020604051808303816000875af19250505080156116e8575060408051601f3d908101601f191682019092526116e591810190611e2e565b60015b611742573d808015611716576040519150601f19603f3d011682016040523d82523d6000602084013e61171b565b606091505b50805161173a5760405162461bcd60e51b815260040161074d90611d30565b805181602001fd5b6001600160e01b031916630a85bd0160e11b14905061109b565b506001949350505050565b6001600160a01b0382166117bd5760405162461bcd60e51b815260206004820181905260248201527f4552433732313a206d696e7420746f20746865207a65726f2061646472657373604482015260640161074d565b6000818152600260205260409020546001600160a01b0316156118225760405162461bcd60e51b815260206004820152601c60248201527f4552433732313a20746f6b656e20616c7265616479206d696e74656400000000604482015260640161074d565b61182e600083836115f0565b6001600160a01b0382166000908152600360205260408120805460019290611857908490611d18565b909155505060008181526002602052604080822080546001600160a01b0319166001600160a01b03861690811790915590518392907fddf252ad1be2c89b69c2b068fc378daa952ba7f163c4a11628f55a4df523b3ef908290a45050565b6001600160e01b0319811681146109bf57600080fd5b6000602082840312156118dd57600080fd5b8135610e64816118b5565b634e487b7160e01b600052602160045260246000fd5b602081016003831061192057634e487b7160e01b600052602160045260246000fd5b91905290565b60005b83811015611941578181015183820152602001611929565b83811115610d335750506000910152565b6000815180845261196a816020860160208601611926565b601f01601f19169290920160200192915050565b602081526000610e646020830184611952565b6000602082840312156119a357600080fd5b5035919050565b80356001600160a01b03811681146119c157600080fd5b919050565b600080604083850312156119d957600080fd5b6119e2836119aa565b946020939093013593505050565b600080600060608486031215611a0557600080fd5b611a0e846119aa565b9250611a1c602085016119aa565b9150604084013590509250925092565b600060208284031215611a3e57600080fd5b610e64826119aa565b60008060408385031215611a5a57600080fd5b611a63836119aa565b9150602083013560ff81168114611a7957600080fd5b809150509250929050565b60008060408385031215611a9757600080fd5b611aa0836119aa565b915060208301358015158114611a7957600080fd5b634e487b7160e01b600052604160045260246000fd5b60008060008060808587031215611ae157600080fd5b611aea856119aa565b9350611af8602086016119aa565b925060408501359150606085013567ffffffffffffffff80821115611b1c57600080fd5b818701915087601f830112611b3057600080fd5b813581811115611b4257611b42611ab5565b604051601f8201601f19908116603f01168101908382118183101715611b6a57611b6a611ab5565b816040528281528a6020848701011115611b8357600080fd5b82602086016020830137600060208483010152809550505050505092959194509250565b600060208284031215611bb957600080fd5b813560038110610e6457600080fd5b60008060408385031215611bdb57600080fd5b611be4836119aa565b9150611bf2602084016119aa565b90509250929050565b600181811c90821680611c0f57607f821691505b60208210811415611c3057634e487b7160e01b600052602260045260246000fd5b50919050565b60208082526031908201527f4552433732313a207472616e736665722063616c6c6572206973206e6f74206f6040820152701ddb995c881b9bdc88185c1c1c9bdd9959607a1b606082015260800190565b6020808252818101527f4f776e61626c653a2063616c6c6572206973206e6f7420746865206f776e6572604082015260600190565b60008351611cce818460208801611926565b835190830190611ce2818360208801611926565b01949350505050565b634e487b7160e01b600052601160045260246000fd5b600082821015611d1357611d13611ceb565b500390565b60008219821115611d2b57611d2b611ceb565b500190565b60208082526032908201527f4552433732313a207472616e7366657220746f206e6f6e20455243373231526560408201527131b2b4bb32b91034b6b83632b6b2b73a32b960711b606082015260800190565b6000600019821415611d9657611d96611ceb565b5060010190565b634e487b7160e01b600052601260045260246000fd5b600082611dc257611dc2611d9d565b500490565b600082611dd657611dd6611d9d565b500690565b634e487b7160e01b600052603260045260246000fd5b6001600160a01b0385811682528416602082015260408101839052608060608201819052600090611e2490830184611952565b9695505050505050565b600060208284031215611e4057600080fd5b8151610e64816118b556fe68747470733a2f2f697066732e696f2f697066732f6261667962656966326b626236363470766774756536656a666679333567776d736a7562683235616b366637777a666a356e3662716c363574716d2fa26469706673582212202136e33e610409e7be02fc0a0aeea7bd9540381652798889241beaf24e8a60ad64736f6c634300080c0033",
    "sourcePath": "/media/yash/fc51dc5b-56d1-4d01-8310-d7b0048238d51/block8/JessicaMae/nft_polygon/contracts/AJungleV2.sol",
    "compiler": {
        "name": "solc",
        "version": "0.8.12+commit.f00d7308"
    },
    "functionHashes": {
        "addWFreeSale(address,uint8)": "99898297",
        "addWSale(address,uint8)": "7e482cd0",
        "approve(address,uint256)": "095ea7b3",
        "balanceOf(address)": "70a08231",
        "currentPhase()": "055ad42e",
        "getApproved(uint256)": "081812fc",
        "isApprovedForAll(address,address)": "e985e9c5",
        "name()": "06fdde03",
        "owner()": "8da5cb5b",
        "ownerOf(uint256)": "6352211e",
        "pause()": "8456cb59",
        "paused()": "5c975abb",
        "pubSalePrice()": "3318e277",
        "renounceOwnership()": "715018a6",
        "safeMint()": "6871ee40",
        "safeMint(address)": "40d097c3",
        "safeTransferFrom(address,address,uint256)": "42842e0e",
        "safeTransferFrom(address,address,uint256,bytes)": "b88d4fde",
        "setApprovalForAll(address,bool)": "a22cb465",
        "setPhase(uint8)": "c03afb59",
        "setPubSalePrice(uint256)": "3eff84a1",
        "setWSalePrice(uint256)": "e2e3e32f",
        "supportsInterface(bytes4)": "01ffc9a7",
        "symbol()": "95d89b41",
        "tokenURI(uint256)": "c87b56dd",
        "transferFrom(address,address,uint256)": "23b872dd",
        "transferOwnership(address)": "f2fde38b",
        "unpause()": "3f4ba83a",
        "wFreeSale(address)": "283f4328",
        "wSale(address)": "23ecb955",
        "wSalePrice()": "7671fc8c"
    },
    "gasEstimates": {
        "creation": {
            "codeDepositCost": "1578000",
            "executionCost": "infinite",
            "totalCost": "infinite"
        },
        "external": {
            "addWFreeSale(address,uint8)": "26896",
            "addWSale(address,uint8)": "26896",
            "approve(address,uint256)": "infinite",
            "balanceOf(address)": "2657",
            "currentPhase()": "2420",
            "getApproved(uint256)": "4738",
            "isApprovedForAll(address,address)": "infinite",
            "name()": "infinite",
            "owner()": "2431",
            "ownerOf(uint256)": "2667",
            "pause()": "29831",
            "paused()": "2382",
            "pubSalePrice()": "2363",
            "renounceOwnership()": "28240",
            "safeMint()": "infinite",
            "safeMint(address)": "infinite",
            "safeTransferFrom(address,address,uint256)": "infinite",
            "safeTransferFrom(address,address,uint256,bytes)": "infinite",
            "setApprovalForAll(address,bool)": "26754",
            "setPhase(uint8)": "26785",
            "setPubSalePrice(uint256)": "24568",
            "setWSalePrice(uint256)": "24544",
            "supportsInterface(bytes4)": "557",
            "symbol()": "infinite",
            "tokenURI(uint256)": "infinite",
            "transferFrom(address,address,uint256)": "infinite",
            "transferOwnership(address)": "28455",
            "unpause()": "29853",
            "wFreeSale(address)": "2580",
            "wSale(address)": "2646",
            "wSalePrice()": "2407"
        },
        "internal": {
            "_baseURI()": "infinite",
            "_beforeTokenTransfer(address,address,uint256)": "infinite"
        }
    }
}