{
    "contractName": "IjungleRandom",
    "abi": [
        {
            "inputs": [
                {
                    "internalType": "address",
                    "name": "_requester",
                    "type": "address"
                }
            ],
            "name": "requestRandomAnimal",
            "outputs": [],
            "stateMutability": "nonpayable",
            "type": "function"
        }
    ],
    "bytecode": "6080604052348015600f57600080fd5b50609f8061001e6000396000f3fe6080604052348015600f57600080fd5b506004361060285760003560e01c80634c67c0a514602d575b600080fd5b603b6038366004603d565b50565b005b600060208284031215604d578081fd5b81356001600160a01b03811681146062578182fd5b939250505056fea2646970667358221220dddee562027dfb2532da5035d6e1362c9cdd77ae738810c38c2684dacd3687c864736f6c63430008030033",
    "sourcePath": "/media/yash/fc51dc5b-56d1-4d01-8310-d7b0048238d51/AJungleNFT/web3/contracts/IJungleRandom.sol",
    "compiler": {
        "name": "solc",
        "version": "0.8.3+commit.8d00100c"
    },
    "functionHashes": {
        "requestRandomAnimal(address)": "4c67c0a5"
    },
    "gasEstimates": {
        "creation": {
            "codeDepositCost": "31800",
            "executionCost": "81",
            "totalCost": "31881"
        },
        "external": {
            "requestRandomAnimal(address)": "235"
        }
    }
}